:4000000000200020110000004D1100004D11000010B501F0A3F8C04610B51222204B1A6001F08CFA1F4801F02BFF202001F03CFA1D498023DB050B60B02252011B4B1A60C5
:400040001B4B1C4818601C4802601C4818601C4802601C4A1A60802212061B4B1A608022D2021A4B1A604222194B1A60013A194B1A60013A184B1A606332184B1A60184BBF
:400080000B609B3A174B1A60164B1B681B07FBD40122144B1A601032014B1A6010BDC04630001040001BB7000C020B40080301400000014042FF00800403014041FF008077
:4000C0000003014040FF008008010B4000010B40140101400C0101400801014008020B400500004010020B4010B572B600240FE024486200131959000B00411889881A5A3C
:40010000C31858880004104301F01AF80134E4B2012CEDD999231C4A13601C491C4A11601C4A136099231B041B4A13601B4A13601B4A13601B4A117806230B43DBB213706A
:40014000194A1A4B1A600223194A1360312219490A6019490B6019490B6019481949086019490B60B238FF381849086018490B6018490A60184A1360FFF74EFF00F0D0FF39
:4001800010BDC046EC4800000001024099EE0000000302400007024000500F4010500F4030500F4000700F40B60DD8000800044000010440080104401801044000030440E7
:4001C000B10D000008030440180304400804044000070440080704401807044010B5064C2378002B07D1054B002B02D0044800E000BF0123237010BD480100200000000068
:4002000058470000084B10B5002B03D00749084800E000BF07480368002B00D110BD064B002BFBD09847F9E7000000004C01002058470000C00000200000000070B500240C
:400240000DE00C4D2B78DBB20B4AD05CC0B201F081FC2B780133DBB22B700134E4B2054B1A78D2B25B78DBB29A4201D0032CE8D970BDC046680100201403002010B509E0D9
:40028000064AD378DBB2064CE154D3780133DBB2D370013001780029F2D110BD680100200C02002010B509E0064A5378DBB2064CE15453780133DBB2537001300178002927
:4002C000F2D110BD6801002014030020044A5378DBB20449C85453780133DBB2537070476801002014030020F0B587B001236A461380093353805A339380FA239B00D380DC
:400300001B4B13810426002727E035007300002103AA995206E003A96C00625A01326252C31A98B26A006B46D35A9842F3D203ABD35A002B03D1002F01D1002E0BD1303313
:40034000DBB20C4AD178C9B20B4C6354D3780133DBB2D3700127013E36B2002ED5DA054BDB78DBB20021044AD15407B0F0BDC04610270000680100200C02002070B58EB0CE
:4003800001230193093302935A330393FA239B0004931E4B05931E4B06931E4B07931E4B08931E4B09931E4B0A930925002623E02A0000210BAB595504E00BACA35C013359
:4003C000A354401A930001A959588842F5D20BAB9B5C32001A4301D1002D0BD13033DBB2104A5178C9B2104C635453780133DBB253700126013D6DB2002DD9DA094B5B789B
:40040000DBB20021084AD1540EB070BD10270000A086010040420F008096980000E1F50500CA9A3B6801002014030020F0B583B005000C001600002200232800210002F056
:40044000FFF9002806D02D20FFF740FF80231B069C4664442800210002F01AFA0700FFF78DFF2E20FFF732FF380003F0E5FF02000B002800210003F0F3FB002417E00022E6
:400480000D4B03F073F90090019103F05DFF070003003033D8B2FFF719FF380003F08AFF02000B000098019903F0DAFB0134B442E5DB03B0F0BDC04600002440F8B50700EB
:4004C000002100251DE0AB00164A9B5CBB4216D1AB00D31800225A80013EF6B2124B1E71280009E0441C0F498000A3000818C918042204F023F8E0B2B042F3D301210135AA
:40050000EDB2094B1E79B542DDD3002908D10748FFF7B4FEB8B2FFF7E7FE0548FFF7AEFEF8BDC046900400206801002080470000A447000010B50400FFF7C0FF002C03D135
:400540000348FFF79BFE02E00248FFF797FE10BDA8470000B847000070B504000C4B1B78DBB2042B0DD80A4A10780A4D4000445513785B00EB18597013780133DBB21370EE
:4005800005E00548FFF77AFEA0B2FFF7ADFE70BD1303002018040020D847000070B51F4B1B78002B35D01E4B1C78E4B25878C0B2002301220FE05100194D69184978C9B21A
:4005C000884206D9510068184078C0B24C5DE4B213000132D2B211490978C9B28A42EAD30E490A78013AD2B20A700CE05D1C0C4A6900885CC0B25B00985451184978C9B2F7
:40060000D3185970EBB2054A1278D2B29342EDD302E00448FFF732FE200070BD1303002018040020EC47000010B50400430603D5012001F043F902E0002001F03FF9A30625
:4006400003D5012000F010FE02E0002000F00CFEE30603D5012000F0CBFD02E0002000F0C7FD230703D5012000F0CEFD02E0002000F0CAFD630703D5012000F0D1FD02E09D
:40068000002000F0CDFDA30703D5012000F0D4FD02E0002000F0D0FDE30703D5012000F0D7FD02E0002000F0D3FD10BD10B500F0E1FF01F0F5F801F075F901F05DFB01F0FB
:4006C0002BFA01F0CFFB01F027F90020FFF7ACFF10BDC04670B50C4C21000C4800F0B2F9206803F067FE0022094B02F01BFC094DA860E960606803F05DFE0022044B02F069
:4007000011FC2861696170BD34040020AC01002080842E416801002070B58EB00024002512E03F4E305DC0B2FFF7D0FD335D303BDBB2092B03D93B48FFF7B4FD6EE0002CE2
:4007400000D11D000134E4B2374B1B78013B9C42E7DB042D06D002D8002D5CD05EE0052D5CD058E0314B9868D9680022002302F061F800280BD02D4B186959690022002371
:4007800002F058F8002802D02948FFF78BFD294D0022294B089209930022284B0692079304920593264A274B02920393264A274B00920193264A274B280000F017FB264849
:4007C000FFF770FD194C0CAB07930AAB0693234A234B049205930022002302920393210010310822684603F0A9FEA268E368280000F014FB1B48FFF755FD06220A980B99B1
:40080000FFF714FE1848FFF74DFD06220C980D99FFF70CFE02E01548FFF744FD0EB070BD0C0300201048000042040020680100201C480000A80400200000144000002E40D5
:40084000333333333333E33F52B81E85EB51564048E17A14AE8745403C4800009A9999999999B93F4C480000544800005C48000070B562B6002306E09A0044498A1800211D
:40088000518001339BB2032BF6D90023404A1370404A1370404A1370404A1380FFF706FF3F4B1B78002B63D072B6FFF777FE3D4A107662B601284BD0002804D0022857D0C3
:4008C000032848D04AE0384A13780133DBB21370C72B0AD10022344B1A70304B1888013080B21880C0B2FFF79FFE304A13780133DBB213701378182B02D106222B4B1A7015
:400900002A4B1B78052B02D10022224B1A70254B1D79002418E0A3001C4AD3185B88002B10D0013B9BB2A20018498A185380002B08D1A200505CFFF7FDFD6B1E9C4201DA0A
:40094000013CA4B20134A4B2ABB29C42E3D30FE0FFF7C0FE0CE0FFF7DFFE09E01448FFF78DFC104B187EFFF7BFFC1248FFF786FC0C4B1A78D2B25B78DBB29A4290D0084B72
:400980001B78002B8CD1FFF759FC89E790040020A801002008020020420400204004002013030020680100208C040020D8040020784800009C480000F0B585B0041E38D0DD
:4009C0000378002B37D02E2103F0C9FD061E34D0051B023D0522002102A803F0B8FD2A00210002A803F0D3FD0A22002102A803F0A7FE070008220021684603F0A8FD6119C8
:400A00000222684603F0C3FD711C04226B46981C03F0BDFD0A220021684603F091FE83001B185800062101F009FE054B7B43C01804E0002002E0002000E0002005B0F0BD74
:400A400040420F00F0B59FB00F00002875D0002975D005AC63220100200003F098FD00226323E25404AA3A49200003F0D2FD002867D0384903F081FD061E64D1344D04AA5E
:400A80002900002003F0C5FD040004AA2900002003F0BFFD029004AA2900002003F0B9FD019004AA2900002003F0B3FD039004AA2900002003F0ADFD04AA2900002003F020
:400AC000A8FD00280DD00378412B0AD1002C08D0019A002A05D02378002B02D01378002B04D10023BB603B607B602DE02000FFF763FF3860029B002B04D01B78532B01D179
:400B0000404238600198FFF757FF7860039B002B04D01B78572B01D1404278603B68002B02D07B68002B04D10023BB603B607B600AE00123BB60012606E0002604E0002663
:400B400002E0002600E0002630001FB0F0BDC046A0480000A4480000F0B595B00490059106920793404A414B0498059902F0FEFD00223F4B02F0D6F904000D0006980799A2
:400B8000394A3A4B02F0F2FD0022394B02F0CAF900900191344A354B1A981B9902F0E6FD0022334B02F0BEF906000F002E4A2F4B1C981D9902F0DAFD00222D4B02F0B2F9DC
:400BC0000290039110AB12AA2000290000F074FA0CAB0EAA3000390000F06EFA009A019B0298039903F03CF808AB0AAA00F064FA0C9C0D9D22002B000A980B9902F0B6FDAF
:400C0000009001910E9A0F9B1098119902F0AEFD06000F00129A139B2000290002F0A6FD089A099B02F0A2FD02000B003000390003F016F802000B000098019900F024FA69
:400C400000220B4B02F092FD074A084B02F06AF90024084D22002B0001F038FE22002B0001F074F915B0F0BD182D4454FB2109400080664000807640F0B599B004900591C2
:400C8000069207931E9C1F9D049E059F32003B002000290002F0E4FF4E4A4F4B02F066FD00224E4B02F03EF900900191069A079B2098219902F0D4FF464A474B02F056FD4E
:400CC0000022464B02F02EF9029003910022444B0098019902F04AFD14AB16AA00F0ECF900223F4B0298039902F040FD10AB12AA00F0E2F9374A384B3000390002F036FDAD
:400D00000022364B02F00EF90CAB0EAA00F0D4F9304A314B2000290002F028FD00222F4B02F000F908AB0AAA00F0C6F9169A179B1000190002F01AFD06000F00089A099B09
:400D40000C980D9902F012FD129C139D22002B0002F00CFD02000B002000290002F006FD02000B003000390001F0B0FD04000D000022002301F064FD00280AD10022194BF2
:400D80002000290001F070FD002804D00024154D01E0002400252000290001F043F906000F0022002B0000200E4902F059FF01F039F902000B003000390000F065F902005E
:400DC0000B0001F083FD0022074B02F0CFFC19B0F0BDC046182D4454FB210940008066400000E03F0000F03FAE4D584102604360009A019B8260C360029A039B02614361FF
:400E0000049A059B8261C361069A079B02624362089A099B8262C3627047C04682B0F0B591B007001692179310220100684603F085FB16981799189A199BFFF71DFF050076
:400E40000C004E00BA6AFB6A2800710801F0F8FC002809D0002200231E990A604B601F990A604B600120A7E010223900684603F065FB16981799189A199BFFF76DFE514A56
:400E8000514B02F073FC0022504B02F04BF8049005914C4A4C4B1A981B9902F067FC00224A4B02F03FF802000B000498059902F0D7FE0CAB0EAA00F0FFF80C9A0D9B0E98F9
:400EC0000F9900F0E1F80C9A0D9B2800210002F04DFC049005910E9A0F9B2800210002F045FC089009913A697B690498059902F03DFC2A00230000F0C7F8324A344B02F0B0
:400F000011F8BA69FB6902F031FC049007913A697B690898099902F029FC2A00230000F0B3F8284A2A4B01F0FDFF3A6A7B6A02F01DFC08900A91BC69FE690B9480231B0684
:400F4000F51822002B000498079901F079FC00280DD1220033000498079901F085FC002802D00B94350002E0049B0B93079D0B9A2B001E990A604B603C6A7F6A26008023E7
:400F80001B06FD1822002B0008980A9901F058FC00280BD122003B0008980A9901F064FC002801D03D0001E0089E0A9D32002B001F990A604B60002011B0F0BC08BC02B0A0
:400FC0001847C046182D4454FB21094000806640FB21F93FF0B50200002907DA002808DB4B4201001A008020400200E00020002318E043420A0019000C48F8E7002A02DA8E
:401000000126764200E0012614001C4174430D001D417543521B9F00054D7D597543401B013309190F2BE9DDF0BDC0460000FFFFAC480000F0B5474680B48846944600230C
:4010400000270F4A13E0002802DA0126764200E001263C001C41744315001D4175437F199900084D4D597543401B0133121B0F2BE9DD63461A6043461F6004BC9046F0BD8A
:40108000369B0000AC480000D0B516001F0003F05BF904043000390003F056F901042000FFF798FF03F086F90022024B02F05EFBD0BDC0460000F03E30B583B015001C00CF
:4010C000134A144B01F002FC114A134B00F03EFF0F4A104B02F0C4FD03F036F900046A4601A9FFF7A7FF019803F064F900220B4B02F03CFB28606960009803F05BF9002200
:40110000064B02F033FB2060616003B030BDC046182D4454FB210940FB2119400000F03E0323044A1360044A13600022034B1A607047C0463000304030003140000E3F4055
:4011400010B50A00002103F002FA10BD10B503F0C9F903680C2B00D1FEE7FEE770B50F4E0F4D13E029686B68AC68002202E001C901C30432A242FAD1E868002202E00021D7
:4011800002C304328242FAD11035013E002EE9D103F0AEF9FFF76CFBFEE7C04601000000F04A000010B50E4A136801218B43136000230AE0032B03D89A000A49505800E096
:4011C00009489900094A885001332F2BF2D9FEF78BFF034A116801230B43136010BDC04600001040000000004D1100000000002004490A68D2B202239A4340001840104386
:40120000086070470000044004490A68D2B204239A43800018401043086070470000044004490A68D2B208239A43C00018401043086070470000044004490A68D2B24023B7
:401240009A43800118401043086070470000044004490A687F231A40C301D8B2104308607047C04600000440044A1368DBB201218B430840184310607047C04600000440E3
:4012800000230AE00D4A12683F210A400C49C95C8A4201D1033303E001332D2BF2D9032308490868084A02400A60084A944663441B78DBB2064A13607047C0462CFF0B4050
:4012C000F848000000002240FFFFFFBFCDF1FF0F28FF0B40034B18688023DB05184000D001207047000022401F2318401E3B8340014A13607047C04600E100E01F23184013
:401300001E3B8340014A13607047C04680E100E001BE704770B504000D001F2802D90020FFF7F6FF1034A40080239B059C4664442068256070BDC04670B504000E000329A4
:4013400002D90020FFF7E4FF1F2C02D90020FFF7DFFF03252540ED00063500F09AFDA408A400074B9C46644421680323AB4099430B003100A9401943216000F08EFD70BDF7
:4013800000E400E010B5040006E0084B586800F077FD074B9C46644480231B029C42F4D8024B9868604300F06BFD10BDC40000200080FFFF70B582B000F0E0F800285DD012
:4013C00000F067FD050000230AE02D4A12683F210A402C49C95C8A4201D1033303E001332D2BF2D903230021274A1160274A1268D20606D1254802681F318A4313390A43F4
:401400000260234C2168234A1140234A5A438023DB019C466244D20B013A5205520D0B001343A0225203134323601C4B1B680193302000F035FD1A4A13688021C9050B43D8
:4014400013602668174B1E40002407E00120FFF799FF1034A30533430D4A1360EE2CF5D90120FFF78FFFFF239B051E43084B1E60019A0A4B1A60280000F00FFD02B070BDD7
:401480002CFF0B40F848000028FF0B4034FF0B400800224000F800C040420F003000104000002240FFFF3FC030B587B0040000F0F0FC0500FFF70EFF002803D0FFF7E0FE21
:4014C000012100E00021104B1B6800930F4B1B680193033C0E4B1B5D02930E4B1B68039304AA0D4B04936B4605930C4B1A600C480C4A10601B68012901D1FFF75BFF280008
:4015000000F0CBFC07B030BD08010B4000010B40F848000030001040B6EA0000080010401700008004001040034B1868C0231B02184000D00120704700010B4010B50D4BD6
:401540001A6801218A431A601A68022082431A60094A10683024A043203C204310601068093CA043014311601A68802109060A431A6010BD00002240000F2240034B1B68AD
:40158000002B01DA012000E0002070470000224010B500F07EFC044A1368C02109020B43136000F07AFC10BD00010B4010B500F070FC08490A68084B1A408024E401224348
:4015C0000A600A6813408022120213430B6000F064FC10BD00010B40FF3FFFFF024B1868024B18407047C04610020B400404040070B5050000F04DFC0400FFF795FF0028EF
:4016000003D0FFF7D3FF012100E0002108482840084A1568084B2B40184310601368012901D1FFF7B5FF200000F037FC70BDC0460404040010020B40FBFBFBFF10B50820FF
:40164000FFF752FE10BDC04610B500F093F810BD10B500F02DF810BD10B5054A1368802109060B431360FFF7E9FFFFF7EDFF10BD0000244010B5064B1B78002B04D1FFF70D
:40168000E7FF0122024B1A70FFF7E6FF10BDC04684010020014B18687047C04640032440024B1B681F2018407047C0460803244070B51B4A1B4B1A6000241B4B1C601B4A5F
:4016C0001B4B1A601B4B1C4A136007211B4A11601B4A146006391B4A11601B4A13601B4B1C6004251A4B1D600820FFF707FE03210820FFF721FE17490820FFF70BFE164BAE
:401700001C60164B1C60164B1C60164B1C60164B1D60164B1C601A68154B1A8070BDC0460B000002000024404000244001000A004800244007000080000324400403244007
:401740001003244044002440000224400402244050002440F51E0000880E2440C80E2440480F2440080F2440C80F2440880F24408C01002005490B68F0229343603A1343CD
:401780000B60034B1A88034B1A607047000102408C010020880F244010B5FFF781FF002802D0FFF777FF01E0064B1868064A1368D821890011601B02D822920213401843FA
:4017C00010BDC04640032440C00F244070B5FFF767FFC5B200240CE0194A1678F6B2731CDBB21370FFF7D8FFC0B2164B98550134E4B2AC42F0D3FF22134B1A60104B1B780C
:40180000013B104AD35C0D2B19D107E00D4AD25CD2B20E49CA540133DBB200E00023084A1278D2B29342F1D3054A1378DBB208490B700023137002210120FEF78DFE70BDD5
:40184000A801002024040020C00F2440AC010020A9010020014B18667047C0460000002010B5040000F015FB044A1368C0218B43A4011C43146000F010FB10BD08E400E099
:4018800080225200014B1A607047C04600E100E080225200014B1A607047C04680E100E010B5FFF7F5FF0448FFF7D4FF0320FFF7D7FFFFF7E5FF10BDCD17000004490A683B
:4018C000D2B208239A43C000184010430860704700040440014BD8657047C0460000002010B5040000F0D5FA044A13689B009B08A4071C43146000F0D0FA10BD04E400E0C8
:401900008022014B1A60704700E100E08022014B1A60704780E100E010B5FFF7F7FF0448FFF7D8FF0320FFF7DBFFFFF7E9FF10BD411900008022014B1A60704780E200E044
:4019400010B5FFF74BFE0400074B1B78DBB2032B03D802210020FEF7FFFDFFF7EBFF2000FFF746FE10BDC0461303002010B50920FFF7BAFC10BDC04610B500F085F810BD01
:4019800010B500F01FF810BD10B5054A1368802109060B431360FFF7E9FFFFF7EDFF10BD0000254010B5064B1B78002B04D1FFF7E7FF0122024B1A70FFF7E6FF10BDC0466F
:4019C0009001002070B51B4A1B4B1A6000241B4B1C601B4A1B4B1A601B4B1C4A136007211B4A11601B4A146006391B4A11601B4A13601B4B1C6004251A4B1D600920FFF772
:401A00007DFC03210920FFF797FC17490920FFF781FC164B1C60164B1C60164B1C60164B1C60164B1D60164B1C601A68154B1A8070BDC0460B000002000025404000254066
:401A400001000A00480025400700008000032540040325401003254044002540000225400402254050002540251F0000880E2540C80E2540480F2540080F2540C80F2540BD
:401A8000880F25409801002005490B68F0229343603A13430B60034B1A88034B1A6070470003024098010020880F254010B500F031FA002802D000F027FA01E0064B186867
:401AC000064A1368D821890011601B02D82292021340184310BDC04640032540C00F254010B50B20FFF700FC10BDC04610B500F0A1F810BD10B500F03BF810BD10B5054A87
:401B00001368802109060B431360FFF7E9FFFFF7EDFF10BD0000274010B5064B1B78002B04D1FFF7E7FF0122024B1A70FFF7E6FF10BDC0469C010020014B18687047C04652
:401B400040032740024B1B681F2018407047C04608032740044B1B681F221340082BF9D0024B18607047C046080227404002274070B51B4A1B4B1A6000241B4B1C601B4A52
:401B80001B4B1A601B4B1C4A136007211B4A11601B4A146006391B4A11601B4A13601B4B1C6004251A4B1D600B20FFF7A7FB03210B20FFF7C1FB17490B20FFF7ABFB164B09
:401BC0001C60164B1C60164B1C60164B1C60164B1D60164B1C601A68154B1A8070BDC0460B000002000027404000274001000A004800274007000080000327400403274034
:401C00001003274044002740000227400402274050002740391F0000880E2740C80E2740480F2740080F2740C80F2740880F2740A401002005490B68F0229343603A13438A
:401C40000B60034B1A88034B1A60704700070240A4010020880F274010B5FFF773FF002802D0FFF769FF01E0064B1868064A1368D821890011601B02D82292021340184330
:401C800010BDC04640032740C00F274070B500F041F9C5B200240CE01D4A1678F6B2731CDBB21370FFF702FFC0B21A4B98550134E4B2AC42F0D3FF22174B1A60144B1B7839
:401CC000013B144AD35C0D2B1DD107E0114AD25CD2B21249CA540133DBB200E000230C4A1278D2B29342F1D3094A1378DBB20C490B700023137002210220FEF72DFC06225B
:401D0000084B1A7002E00022064B1A7070BDC04608020020C0010020C00F25404404002012030020D8040020014B58667047C0460000002010B5040000F0ABF8044A1168D2
:401D4000044B0B40A4031C43146000F0A6F810BD08E400E0FF3FFFFF80229200014B1A607047C04600E100E080229200014B1A607047C04680E100E010B5FFF7F5FF044881
:401D8000FFF7D2FF0320FFF7D5FFFFF7E5FF10BD8D1C000070B5FFF7D5FEC5B200240CE0184A1678F6B2731CDBB21370FFF754FFC0B2154B98550134E4B2AC42F0D3FF22CE
:401DC000124B1A600F4B1B78013B0F4AD35C0D2B17D107E00C4AD25CD2B20D49CA540133DBB200E00023042BF4D90023084A53710621084A1170034A137004390320FEF7C0
:401E0000ABFB70BDBC010020DC040020C00F27400C03002042040020014BD8667047C0460000002010B5040000F033F8044A13689B009B08A4071C43146000F02EF810BD74
:401E400008E400E080221201014B1A607047C04600E100E080221201014B1A607047C04680E100E010B5FFF7F5FF0448FFF7D4FF0320FFF7D7FFFFF7E5FF10BD951D000018
:401E80000230800803D00138FDD1C046C046C0467047EFF3108072B6704780F31088704770B50400FFF7F5FF0500102C05D8104A136803218B43136016E0202C07D80C49D1
:401EC0000B6803229343023A13430B600CE0302C07D807490B6803229343013A13430B6002E00020FFF714FA2800FFF7D6FF70BD3000104010B5034B1B68002B00D0984780
:401F000010BDC04688010020014B18687047C04640032540024B1B681F2018407047C0460803254010B5034B1B68002B00D0984710BDC0469401002010B5034B1B68002BA7
:401F400000D0984710BDC046A0010020F0B546464F46C0B48DB01D0006000F00140000F0C1F82E4B009001911B785BB29846013333D022002B002000290002F0C5F90028FA
:401F80002BD132003B003000390002F0BDF98146002822D1002200232000290000F04AFC00281AD0012302931D4B0496059703934B460A93434606940795002B14D1089667
:401FC000099702A800F0AEFA002818D00A9B0093002B1CD10898099901E0009801990DB00CBC90469946F0BD002300221900100000F098FF434608900991022BE1D102F0E2
:4020000071FA212303600A9B0093002BE2D002F069FA0A9B00930360DCE7C046D800002028490000F0B546464F46C0B48DB004000D0000F081F9294B009001911B785BB22F
:402040009846013312D022002B002000290002F05BF98146002809D10026002732003B002000290000F0ECFB002806D1009801990DB00CBC90469946F0BD01230293184BB9
:402080000694079503934B460A93434604940595002B15D03B0032003000390000F042FF434608900991022B0CD102F01BFA212303600A9B0093002B0AD108980999D7E7A3
:4020C0000896099702A800F02DFA0028F1D1ECE702F008FA0A9B00930360EEE7D800002030490000F8B5564644465F464D4698465B005B08F0B41E008246040015001700EE
:40210000164326D0CE0FF607B3464E40B146804EB1451EDC56421643F60F1E43B4467D4EB44516D8994504DC84461ADB904218D35FD0794989451BDC4946002900D0AAE035
:4021400056467649002E18DD01397600002EFBDC13E0434601F00AFB02000B0000F0E2FE844660463CBC90469946A246AB46F8BD6B4E4946B44609156144674EB3420ADC9D
:40218000002B00D09EE0654E002D07DD013E6D00002DFBDC02E0624E1D15AE19614DA94267DB4846050380202D0B400305435D4886424FDB434680221B031B0B5203134322
:4021C000881BEA1A00281DD0BC4289414942521A09D41100E41B21430BD0E50F5200551964000138EDE7E10F6A00551864000138E7E75B46DE0F4C4BF6009E19336871689B
:402200009C46AEE7BC429B415B42D21A6CD4E41B13002343EDD0404B18009A4206DCE10F53005A186400013E8242F8DD3D498E424FDA891B142959DC202023001400401A97
:40224000CB4084401C4313000B415A461A431100A44686E7801B84461F282DDC20273F1A1000F84007006046834082403B431700A6E76C1AA4461F2C18DC20252D1B04003B
:40228000EC404D46A2466446A540544625436446A04004008BE74946CE022249002E00DC6BE701397600002EFBDC66E71F4C641AA040002405007AE71C4B00279B1B9A404D
:4022C00013007DE7174EDD02013E6D00002DFBDC64E7174BA446D3185A461343154AB5182D052B4319003CE72A0091E71F2908DC23002020CB40411A8A4014001C435B467E
:40230000A3E70A4B9B1B1A415B4614009DE7C046FFFFEF7F0000F07FFFFF0F00EDFBFFFF01FCFFFF02FCFFFF38490000E2FBFFFF0000F0FFFF030000F0B556464D464446FE
:402340005F46754BF0B40A000D00190083B0060004002940994200D1BAE0002D00DC94E02D1500D1A3E06D4B12039C468023120B5B0365441A43EB0700D581E06B109846D1
:40238000E30F9B189B18802216210026002764009203B818984202DC87181B1AB618E00F5B0001391B18640052080029F1D1002201929446802212062020914609E09F42F2
:4023C00041D0E10FC9180138CB186400520800281ED0614651189F42F1DA8D18AC46CD0FED07BA464D4539D0DB1B8C42BF417F42DB1B641A019901388B46934459460191A8
:40240000E10FC9185746CB18640052080028E0D123432BD1019B5B08414972108C466244F10702D5802109060B43414609058D181E002F003000390003B03CBC90469946B2
:40244000A246AB46F0BDA1420ED88D18AC46CD0FED074D4548D09A460023CAE76546002DC2DB7D1CAA46BFE73B00AAE7019B01333ED0019A01239446134063445B08CBE752
:40248000E30F52009A18640078E76B005B0803432F00002BCED00025002A31D1E20A153D6405002AFAD080235B031A4223D180200023400300E00B005200591C0242FAD054
:4024C0002020401AED1A2300C3408C401A434AE702002B00290001F049F932002B0000F0F5F906000F00A5E76546002DB9DAB2E70136002390E7012320205B420021E1E797
:402500003B000200390001F0ABFB02000B0000F009FD06000F008DE70000F07F01FCFFFF0000E03F00207047002243088B4274D303098B425FD3030A8B4244D3030B8B424A
:4025400028D3030C8B420DD3FF22090212BA030C8B4202D31212090265D0030B8B4219D300E0090AC30B8B4201D3CB03C01A5241830B8B4201D38B03C01A5241430B8B42EE
:4025800001D34B03C01A5241030B8B4201D30B03C01A5241C30A8B4201D3CB02C01A5241830A8B4201D38B02C01A5241430A8B4201D34B02C01A5241030A8B4201D30B022F
:4025C000C01A5241CDD2C3098B4201D3CB01C01A524183098B4201D38B01C01A524143098B4201D34B01C01A524103098B4201D30B01C01A5241C3088B4201D3CB00C01A26
:40260000524183088B4201D38B00C01A524143088B4201D34B00C01A5241411A00D20146524110467047FFE701B5002000F0F0F802BDC0460029F7D076E7704703460B4337
:402640007FD4002243088B4274D303098B425FD3030A8B4244D3030B8B4228D3030C8B420DD3FF22090212BA030C8B4202D31212090265D0030B8B4219D300E0090AC30B63
:402680008B4201D3CB03C01A5241830B8B4201D38B03C01A5241430B8B4201D34B03C01A5241030B8B4201D30B03C01A5241C30A8B4201D3CB02C01A5241830A8B4201D36A
:4026C0008B02C01A5241430A8B4201D34B02C01A5241030A8B4201D30B02C01A5241CDD2C3098B4201D3CB01C01A524183098B4201D38B01C01A524143098B4201D34B016C
:40270000C01A524103098B4201D30B01C01A5241C3088B4201D3CB00C01A524183088B4201D38B00C01A524143088B4201D34B00C01A5241411A00D2014652411046704786
:402740005DE0CA0F00D04942031000D34042534000229C4603098B422DD3030A8B4212D3FC22890112BA030A8B420CD3890192118B4208D3890192118B4204D389013AD0EA
:40278000921100E08909C3098B4201D3CB01C01A524183098B4201D38B01C01A524143098B4201D34B01C01A524103098B4201D30B01C01A5241C3088B4201D3CB00C01A5B
:4027C000524183088B4201D38B00C01A5241D9D243088B4201D34B00C01A5241411A00D20146634652415B10104601D34042002B00D54942704763465B1000D3404201B5AB
:40280000002000F005F802BD0029F8D016E770477047C0468446101C62468C46191C634600E0C0461FB500F037FF002801D40021C8421FBD10B500F08BFE4042013010BD7A
:4028400010B500F029FF002801DB002010BD012010BDC04610B500F01FFF002801DD002010BD012010BDC04610B500F0B1FE002801DC002010BD012010BDC04610B500F0DD
:40288000A7FE002801DA002010BD012010BDC04670B500220C4B04000D00FFF7EFFF002804D12000290001F04FFD70BD064B00222000290001F0D4F901F046FD80231B06DA
:4028C0009C466044F1E7C0460000E041F8B556465F464D464446F0B40F00FD0FAA4609037C002E005F00450F490A7F0D2943C5001803BC46400A570F640DDB0F3843D200AB
:402900009A4500D1AAE06646A61B002E00DCFFE06346002B39D10300134300D0D9E06B0709D00F232B40042B05D02B1DAB42AD416D4249191D000B0200D482E0CA4B01347D
:402940009C4200D1FEE00A005646C84BED081A405007640552020543120B640D002112030B0D1B056405120B1A436308C04CF60714401C43640064083443280021003CBCD8
:4029800090469946A246AB46F8BDB74B9C42C6D080231B041843382E00DDEBE01F2E00DD1EE120239B1B9C4603006746BB40984613004746F3403B436746BA40571EBA413E
:4029C00013430200F240EB1A9D42B6411D008A1A7642911B0B0231D54A02560A002E00D1B4E0300001F060FD0300083B1F2B00DDB5E020222900D21AD1409E400A009D404E
:402A000032439C4200DDB1E01C1B631C1F2B00DDD5E0202114002800C91A8C40D8408D400443DA40681E854111002543002476E74146314300D134E2310045466B0700D0AB
:402A40006FE756464807ED08C9080543864B9C4235D00A036405120B640D7FE76346E31A9B46002B00DC8BE06746002F3CD07E4FBC4200D153E780273F0438435B46382BC9
:402A800000DCF7E00243501E82410020D2B253194218AB4289411D00494289180B02CDD5714B01349C4200D13DE101206F4A6B080A4028401843D507054351082FE72B00FE
:402AC0000B4300D1CBE180231B030B431A03120B44E7013E002E6DD1AE1AB5429B41091A5B42C91A350075E70700174300D116E701235B429C46E3445B46002B00D0E0E0C8
:402B0000AA18AA429B4109185B4259181500C5E7002E75D1661C7605760D012E00DCF3E0AE1AB0464545BF410E1A7F42F61B370200D48FE0551BAA42B641411A76428E1B7C
:402B40009A464BE756460022002507E7280001F0ABFC20300300083B1F2B00DC49E72A002838824000259C4200DC4DE73F49E41A1140D4E60243501E8241D3B2002222E7B0
:402B8000002B00D0F3E0631C9C465B055B0D012B00DC9FE0344B9C4500D1C3E0AA180918AA42804140424118CD075208154349086446B4E62C4B9C4200D0ECE6AFE61100A0
:402BC0001F3CE1400C00202B00D17FE04021CB1A9A4015436A1E95410021254300242DE733000700203BDF403B00202E70D04027BE1BB0400243501E824113430022E2E6D8
:402C0000002C4FD0184CA44500D1ABE08024240476422143382E00DDDFE01F2E00DD43E12027BC1BA1460C004F46BC40A0462C004746F4403C434F46BD406F1EBD41F14026
:402C40002C43151BAA429241411A5242891A64469A46BFE641464546314300D0BEE6002600240025F2E6C046FF070000FFFF7FFFFFFF0F801F2B59DC2027FF1ABC460700F7
:402C800063469F405B46B9461700DF40B8464F4643461F4363469A40531E9A415B463A43D840F4E60C002C435CD0F643002E55D1551BAA42A441411A6442091B9A46644635
:402CC00088E6964FBC4200D0D8E628E6002280E700208FE70B002B43002C00D0C2E0002B00D101E10300134300D118E6AB18AB42B6410918764271180A0200D409E1884A06
:402D00001D00114064460AE6002C5BD10E002E4300D08AE00100114300D1C2E0010015009A46FCE56446002100258FE620235B429C46DC4463460700DF405B46BC46202BD7
:402D400000D1ACE040235F46DB1B98400243501E8241634613431A00002098E66F4CA44500D057E70100150064469A46D7E5002C39D10C002C436ED0DB43002B1AD0674C10
:402D8000A44568D0382B00DDA4E01F2B00DDAEE020240F00E41AA740B9462F00DF40B846A3464F46444627435C46A5406C1EA541D9403D43AD1895429B4109185B4259184D
:402DC00064466BE60C002C4315D1010011437BD0010015009A46514CA1E50D43691E8D410021ECB22DE74D4CA44534D0802424045B422143C6E7040014434ED0ED084C0785
:402E00002C438025C9082D03294208D0C6082E4205D1D208410711430C009A463100620FC900E50011433D4C79E50600164300D175E5AE1AB0464545BF410E1A7F42F61B6D
:402E4000370200D4F4E5551BAA42B641411A7642891B9A4663E50100150064465FE5002200257BE5002B3BD00300134315D0ED084B072B438025C9082D03294207D0C408B2
:402E80002C4204D141070B002100D2081343C9005A0F1143DD00214C41E5204C3FE5002054E700260025D1E534000F00203CE7403C00202E2BD04027BE1BB1400D43691EF6
:402EC0008D4100212C43BCE6802100260903134C0025BBE50D43691E8D410021EDB269E7010015000D4C1AE50100150017E51C000F00203CE7403C00202B0CD04027FB1A19
:402F000099400D43691E8D410021254352E70021D4E71D0092E50021F3E7C046FF070000FFFF7FFFF0B556464D4644465F46F0B41D000E034C00CB0F87B007009246814686
:402F4000360B640D98466AD06D4B9C4235D08022430F12041343F6001E43C3009946694B00279C460023644402932B0368001B0BED0F51469B46400D009500D178E0604B90
:402F800098426CD05B46DA004B0F802109040B4313439B465346D9005A4B9C46002360444246201A6A40924601901F430F2F00D9B0E05548BF00C0598746374300D088E061
:402FC000002399460233082700260293CDE74346B34649460093029B009A9246022B00D0BFE1002153460122002689461A40444B002136030C0D2405360B2643434C1B05FC
:4030000026401E437600D207760816434846310007B03CBC90469946A246AB46F0BD330003434FD0002E00D1BCE1300001F03CFA03000B3B1C2B00DDADE11D220100D31A47
:4030400008393A008F408E40DA40B9461643304B00279C46002360444442029385E753465A4613432CD1002300219B46023397E70B4320D05B46002B00D19EE1584601F0A7
:4030800013FA03000B3B1C2B00DD8FE102005946083A91408B461D21CB1A5146D9400B0059460B4351469B469140194B9C4660444042002374E7002300219B4601336FE7F4
:4030C00003236DE70023994601330427002602934BE703230C27029347E70122D51A382D00DCB0E153461A4000210023002689467EE700238026994600223603004B77E7CB
:40310000FF07000001FCFFFF48490000FFFF0F80F30300005E4500D972E100D16DE1019B4D46013B01930023340002935B461E020B0E1E430B020393330C994633041B0C47
:40314000494620000093FFF7EFF9009B370043430600494620009846FFF76CFA2C0C09040C43A04509D9E419731EA74200D95CE1A04500D859E1023EE4194346E41A4946B6
:403180002000FFF7D1F90300009A80465343494620009B46FFF74EFA2A040904120C0A4393450DD94346D219013B974200D93AE1934500D837E102235B429C46D219E0440C
:4031C0005B46D21A4346360433439B460399180C0B0C1D00059309045B46090C0C001B041B0C4443049159436B4368431B190D0CEB189C4203D980246402A44660441C0CAC
:4032000009041B04090C20185D18824200D2DEE000D1D7E0161A029B9C465D1BAC459B415B42F61AB74200D106E149463000FFF77BF9009B04004343494630009846FFF791
:40324000F9F92E0C09040E43B04509D9F619631EB74200D9F3E0B04500D8F0E0023CF6194346F31A494618000293FFF75DF9009B06004343494602989846FFF7DBF92D0487
:4032800009042D0C0D43A84509D9ED19731EAF4200D9D6E0A84500D8D3E0023EED192404210043463143049E059A3000ED1A0B040C0C1B0C58436643534354439A19030C95
:4032C0009B189E4203D980225202944664441A0C00041B04000C14191B18A54250D34DD001231943964A019B94466344002B00DCF3E64A0709D00F220A40042A05D00A1DDF
:403300008A42894149428B4411005A46D20108D55A468C4B1A4093468022D2009446019B6344894A934200DD5BE65A46C908500708435602514601225B058146360B5B0D46
:403340000A4055E680231B031E4211D05A461A420ED15E461E433603360B2A0089467B4B46E6032B00D1E1E0012BBBD11A40BBE61E433603360B4246744B39E6002BB1D021
:403380007D194A1EAF4252D91100A542A8D1039A9A42A5D1A6E703003E00283B9E400023994654E601F080F8203041E603005246283B9A400021934677E6504601F074F846
:4033C00020305EE6029B0026AB4200D323E7039E0299B44661448846B045B6415B467642F619B218013B0291974213D290424FD800D18EE0161A9B460DE7894500D28EE607
:4034000074084B46F60735005B081D434B46DB0702938BE69742EDD10399029CA142E5D93E1A9B46F7E69846CAE61E00A5E6AC423ED874D0110053E70121494252E71C00BD
:403440000EE71E002BE71F2D3CDC20230A0058465B1B9840EA4099400243481E81415E461143EE404B0709D00F230B40042B05D00B00191D99429B415B42F61833023CD55F
:403480005346012200211A40002601238946AFE502235B429C46039CE344A446029B63449846A045B6417642F6190293B218B1E603988A1E41008142B6417642F619AD194E
:4034C000039161E71F225242D31A5A46DA401300202D29D040225846551BA8400143481E814107200B4318400026002809D00F2200261A401900042ABBD10B0070077602E5
:40350000360BDB0803439946012253461A4000236EE502998D42BBD89B4600267BE603989842C5D3110032E70020D7E780265B4636031E433603360B009A8946034B57E5EE
:40354000FF030000FFFFFFFEFE070000FF070000F0B55F4656464D464446F0B41F035C00DB0F9A46194B0E034D00C90F8046360B6D0D8B4691463F0B640D9D4219D0134BB0
:403580009C421BD00123A54206D018003CBC90469946A246AB46F0BDBE42F6D1C845F4D1D34510D0002DF0D1304303005A1E9341EBE7310001230143E7D1E0E73A4301234A
:4035C000002AE2D1DEE70023DFE7C046FF070000F0B55F46444656464D46F0B41F033C0B2C4F0E034D00A3465C008446360B6D0DC90F9046640DDB0FBD422BD0254FBC420C
:403600002ED0002D0ED130430700814678427841002C17D15F463A4314D14B460020002B0AD006E0002C02D15846024301D099421AD00123484218433CBC90469946A246FF
:40364000AB46F0BD0028F2D058425841012240421043F1E737000743D0D002204042EBE75F461743CDD0F8E7A542E2DC05DB5E45DFD808D000205E45DED24842484101234C
:4036800040421843D8E7C445D3D80020C445F4D3D2E7C046FF070000F0B55F464D4644465646F0B41C03240BA4462F4C0F034D005E00C90F80463F0B6D0D8B469146760D61
:4036C000DB0FA54220D0284CA64222D0002D12D1384344424441002E20D0002C0DD05C42634101245B421C4320003CBC90469946A246AB46F0BD002E17D05B4519D05B4609
:403700005C4201231C43EFE7390002240143EBD1D9E7614602241143E6D1D7E761460A43DBD100240028DFD0E9E761460A43E4D1E5E7B54203DD01225C421443D4E7B5425C
:40374000CDDB6745DBD809D000246745CCD259464C426141012449420C43C5E7C845CED80024C845F3D3BFE7FF070000F0B55F4656464D464446F0B40D0399464E002B0B11
:4037800087B00700924680469B46760DCC0F002E69D06D4B9E4235D05B468022DD001204430F13432B439B46C3009846674B00279C460023664401934A4615035000D20F27
:4037C00053462D0B400D914600D176E05E4A90426CD080225B0F120413435C4AED0094461D4353460022DB00604449463618701C6140029017430F2F00D9AFE05448BF0081
:40380000C759BF465B461F4300D088E000239B469846023308270193CEE74946022A6AD0032A00D109E2012A00D0BBE111400022002300259046CCB200212D030A0D120596
:403840002D0B1543434A1B0515401D436D00E4076D0825434046290007B03CBC90469946A246AB46F0BD034352D05B46002B00D18AE1584600F018FE03000B3B1C2B00DD07
:403880007BE11D22D31A3A0001005D46DA4008398D4013008F402B439B46B8462E4B00279C46002360444642019385E752462A432CD100250023022297E752462A4321D098
:4038C000002D00D154E1280000F0EEFD03000B3B1C2B00DD46E11D21CB1A51460200D9405346083A954093400D431B4A944660444042002279E7012400220C40124B00255A
:40390000904699E70025002301226EE703226CE700239B4698460133042701934CE703230C27019348E700238025984600242D03054B81E75D464346019A6FE75D464346DA
:403940002100019A6AE7C046FF07000001FCFFFF88490000FFFF0F80F30300004246120C91461A0C9446424617044A461B041B0C5A43604690464A4642431000039262466E
:403980001C003F0C7A437C4342440192220C9246019A5244904506D98246802040028046C24450460390100C049048462404240C1204121905922A0C2D042D0C68432C009C
:4039C000824648467C4350438146200C8046574357444744BA4503D9802040028046C144380C3F04B84648442404240C01900498A044404404905846000C81465846040475
:403A0000200C8246070048465F434C464343604660436446834650464443380C8446E4186444A34203D980235B029C46E34448463F04230C3F0C2404E419574668436F4384
:403A400084464D46504655434243380C814662444A445B44944503D9802040028446654403983F04834604983F0C8446E344C34580414042824610048446019867448446D0
:403A80006744A344BC46A345A4419946D44464428742BF41D4458041E144A04699459B417F424042C8440743120CBA18A045A4415F423B0064422343D71843467D19DB0D6F
:403AC0006D021D435B465A02059B1A43531E9A415B46DB0D1A4343465B021343EA0107D501225C0813402343EA07029E13436D08574AB218002A4BDD580709D00F201840B0
:403B0000042805D0181D98429B415B42ED180300E80104D54F4A15408022D200B2184E48824200DDE7E60124DB08680718436D02530580462D0B5B0D0C407DE68022594613
:403B40001203114208D0154206D115432D0398462D0B4C46414B6FE65D4615432D032D0B3E4B69E603005546283B9D400023BCE6504600F099FC2030A8E60300283B9F40AA
:403B80000023BB46984689E600F08EFC203073E60124A61A382E07DD00220C4000230025904649E6029EA3E71F2E20DC20222C001800921BF040944093400443581E834189
:403BC0001C43F540630709D00F232340042B05D023001C1D9C4292415242AD182B021FD5012400220C4001230025904624E61F202C004042821AD440202E1CD04022961B28
:403C0000B5402B43581E83410720234318400025002809D00F2200251A401C00042AD8D1230068076D022D0B0124DB08034398460C40002300E60025E3E7802201241203B4
:403C400015432D0398462D0B0C40044BF4E5C046FF030000FFFFFFFEFE070000FF070000F0B557464E464546E0B40E001100F20F9246C500420F180337037400400A4E0FB1
:403C80007F0A3043CF4E17435A00640D520DDB0FC900B24200D1E5E001267340A61AB446534500D1AFE0002E00DC0DE1002A3AD103000B4300D0E4E06B0709D00F232B40A4
:403CC000042B05D02B1DAB42AD416D427F191D003B0200D488E0BB4B01349C4200D110E13A00B94B51461A4001235007ED08520264050543120B640D0B400021280012030A
:403D00000D0D120B64052D0515436208AF4CDB072C401443640064081C4321001CBC90469946A246F0BDA74B9C42C5D080231B0418436346382B00DDFDE01F2B00DD30E15D
:403D4000624620239B1A02009A40664690460A009940F24046464B1E99413243114363460200DA40691A8D429B410D00BA1A5B42D71A3B0235D57A02530A98464346002B84
:403D800000D1C4E0404600F08FFB0300083B1F2B00DDC5E020222900D21A4746D1409F400A009D403A439C4200DDC0E01C1B631C1F2B00DDE4E0202114002800C91AD840D0
:403DC0008C408D400443DA40681E854117002543002471E7424663461A4300D14CE2674645466B0700D069E7012351467807ED08FA080B40054373498C4238D01203640557
:403E0000120B640D79E7002E00DC9AE0002A47D06C4A944200D14FE78022120410436246382A00DC08E10143481E81410022C9B24919D219A942BF410D007F42BF183A0240
:403E400000D442E15F4A0134944200D14EE101205D4A69083A4028400843D507054357089A4629E706000E4300D017E714E72900114300D1F9E1802109030A431203120B4A
:403E80003BE701235B429846C4446346002B72D1691A8D429B413F1A5B42FF1A0D0068E702000A4300D107E7012252429046C4446246002A00D0E6E06918A942B6413F18C4
:403EC0007642F7190D00BAE7002E00D080E0621C5205520D012A00DCF9E06A1A91464D45B6413A1A7642921B9046120200D499E04D1BA9428941C71B49427A1A90469A4632
:403F00003CE752460123002513400022F5E6280000F0CAFA20300300083B1F2B00DC39E72A002838824000259C4200DC3EE7264FE41A1740C0E60143481E81410022C9B2AC
:403F400010E7002E00D0F1E0621C94465205520D012A00DCA0E01B4A944500D1C5E06918A94292413F185242D2194908D5070D4357086446A0E6134B9C4200D0D9E69BE6C5
:403F800011001F3CE1400C00202B00D180E04021CB1A9A4015436A1E95410027254300241FE763460200203BDA406346202B71D0402366469B1B98400143481E81411143AB
:403FC0000022CFE6FF070000FFFF7FFFFFFF0F80002C48D0CA4CA24200D1A2E07442A1468024240427434C46382C00DDDBE01F2C00DD44E14E462024A41B3E00A640A246F9
:40400000B0464C462E00E640B4464646644626435446A5406C1EA54134002C434D46EF400D1B28E04A4643464D461A4300D0A5E6002300240025DEE61F2A5ADC6646202286
:40404000921B060096409146B04662460E00D640424616434A4691404A1E9141020060463143C240E4E63C002C435AD0F443A146002C52D14D1BA9428941C71B49427F1A55
:4040800014009A4675E69E4A944200D0C7E613E600227FE700208FE7002C00D0C8E03B002B4300D10FE103000B4300D104E66918A9429B413F185B42DF193B0200D41AE105
:4040C000904B0D001F406446F6E59A4689E63A002A43002C5CD1002A75D102000A4300D1CAE007000D009A46E6E564460022002581E662460600203AD6406246B046202A4E
:4041000000D1B7E040226646921B904001434246481E8141114300228AE6794CA24200D061E707000D0014009A46C5E5002C41D13C002C4378D0F443A146002C20D0704C18
:40414000A24271D04C46382C00DDB2E01F2C00DDBCE02026341BA2463C005646B4404E46A0462C00F440A446444666463443A4465446A54064466E1EB54125434C46E74081
:404180006D188D4289413F184942CF19140056E6002A2FD102000A4300D184E007000D009A46574C88E53D436F1EBD41ECB200270D1B60E7524CA24236D0744280263604B8
:4041C000A1463743BEE702000A4300D174E56A1A90464545B6413A1A7642921B9446120200D4F7E54D1BA9428941C71B49427F1A9A4661E502000A433AD0ED087C072C4385
:404200008025FA082D032A4208D0C7082F4205D145072C003A009A46C9080C43670FD200E5001743364C47E507000D00140043E53A002A4343D002000A4319D0ED087C07AC
:404240002C438025FA082D032A4207D0C6082E4204D147073C003200C9080C43D700620FE50017439A46264C26E50022002544E5234C21E5002049E700230025BBE54C4633
:404280003E00203CE6404C46B446202C31D040244E46A61BB7403D436C1EA54164462C4300270D1BE7E6802200231203144C0025A1E53D436F1EBD410027EDB260E707008C
:4042C0000D000F4CF8E407000D00F5E44E463C00203EF440A0464C46202C0ED040244E46A41BA7403D436F1EBD4144460027254346E70027CFE70D0073E50027F2E7C04652
:40430000FF070000FFFF7FFF70B50E4E0C031D0349005B00240B490D2D0B5B0DB14204D0084900208B4208D070BD04430120002CFAD1044900208B42F6D115432800451E35
:40434000A841F1E7FF0700000B0330B5134D1A0B4B005B0DC90F0024AB4211DD104CA34210DC8024640322430E4CE41A1F2C0CDD0D48C31ADA4013005C42002900D11C0038
:40438000200030BD094BCC18FAE7E040084CA44663449A4013000343EEE7C046FE0300001D0400003304000013040000FFFFFF7FEDFBFFFF70B5002830D0C317C4185C4053
:4043C000C50F200000F070F8174B184A1B1AD21A1F2A18DD164AD21A9440002224035B05240B5B0D0021100024030A0D1205240B1443104A1B0514401C436400ED076408F1
:404400002C43210070BD210091400A000B21081AC4405B052403240B5B0DE3E70025002300240022DEE7C0461E0400003304000013040000FFFF0F8070B5051E28D000F003
:4044400033F8154B154A1B1AD21A1F2A16DD2C00134A0025D21A94405A052403240B520D002124030B0D240B1B0523430D4C1205234013435B002800590870BD0B212C00CC
:40448000081AC440954024035A05240B520DE7E700220024E4E7C0461E0400003304000013040000FFFF0F801C2101231B04984201D3000C10391B0A984201D3000A08396A
:4044C0001B09984201D30009043902A2105C40187047C04604030202010101010000000000000000014B18687047C0463C0100200E4B70B500251E000D4CE41AA410A542D7
:4045000004D0AB00F35898470135F8E700F0DEFA084B00251E00084CE41AA410A54204D0AB00F35898470135F8E770BDD84A0000D84A0000D84A0000E04A0000002310B50F
:404540009A4203D0CC5CC4540133F9E710BD03008218934202D019700133FAE770470200C9B21378002B03D0994204D00132F8E71800002900D11000704702780B78002A0B
:4045800003D0013001319A42F7D0D01A7047030030B5002A0DD00C7801335D1E013A2C700131002CF5D19A189A4202D01C700133FAE730BDF0B5041E0CD11468201E09D13E
:4045C00026E03778002F0CD00136B842F9D1002B04D02C00651C20780E00F2E71560237015E0002808D1106012E00778BE4207D00130002FF9D11D006B1C2E780800F4E7C8
:40460000002E02D00021297000E0330013602000F0BD10B50123FFF7CDFF10BDF0B51E00454B87B01B680192029308220B00059003911C7802995D1C09194878104001D0B7
:404640002B00F6E72D2C04D19D1C5C780123009304E000902B2C01D15C789D1C002E02D0102E0AD162E0302C5ED120222B789343582B54D110266C780235009F31007B1E93
:404680009F412E4BFF183800FDF7D4FF380004913100FDF749FF00230322070094461800029A121951780422114201D0303C07E06246114017D03722012900D02032A41AA0
:4046C000A64210DD5A1C0BD0B84207D802D1049B9C4203DC70430123201801E001235B422C780135DCE75A1C0BD10098059A431E9841124BC01822231360019B002B0AD1EC
:4047000017E0009A002A00D04042019A002A10D0039A002B00D06A1E019B1A6009E03024002EAAD10826A8E70A26A6E7302C9CD0A3E707B0F0BDC04640010020FFFFFF7F98
:4047400010B513000A00010002480068FFF766FF10BDC0463C01002000000000000000004552523A2063616E2774206164642074696D657220455654200000000D0A000039
:404780005741524E3A20636F756C64206E6F742063616E63656C2074696D657220455654200000000A0D000048656C6C6F20576F726C6421000000004552523A20756E6B04
:4047C0006E6F776E2047502074696D6572206576656E740D0A0000004552523A2074736B20512066756C6C3A000000004552523A206E6F207461736B7320696E20717565CB
:40480000756520746F20646571756575650D0000556E7265616C5F4643000000436F6F726473206E6F7420736574206F7220696E76616C6964204750530A00005265616353
:4048400068656420636173652034210050495443483A00002C524F4C4C3A00005B4552524F525D556E6B6E6F776E5F7061636B65745F7479706500004552523A20756E68CD
:40488000616E646C65207461736B20696E207461736B207175657565200000000D0000002C00000024474E474C4C000010C90000B2760000B63E0000D61F0000FB0F00002D
:4048C000FF0700000004000000020000000100008000000040000000200000001000000008000000040000000200000000300F40000400400F400004030405060708090A63
:404900000B0C0E0F101112131415161718191B1C1D1E1F2021222325262728292A2B2E2F3031323334350000666D6F6400000000737172740000000000000000000000004B
:40494000000000000000008014310000E22F0000E8300000D82F0000E8300000F2300000E8300000D82F0000E22F0000E22F0000F2300000D82F0000CE2F0000CE2F0000A4
:40498000CE2F0000443300005C3900001C3800001C3800001A3800003439000034390000263900001A3800003439000026390000343900001A3800003C3900003C390000F4
:4049C0003C3900003C3B00004300002020202020202020202828282828202020202020202020202020202020202020881010101010101010101010101010100404040404D4
:404A00000404040404101010101010104141414141410101010101010101010101010101010101010101101010101010424242424242020202020202020202020202020250
:404A400002020202020210101010200000000000000000000000000000000000000000000000000000000000000000000000000000000000000000000000000000000000CA
:404A800000000000000000000000000000000000000000000000000000000000000000000000000000000000000000000000000000000000000000000000000000000000F6
:404AC000000000000000000000000000F8B5C046F8BC08BC9E46704705020000A5110000F8B5C046F8BC08BC9E467047DD010000004B0000C000002088000000A003000039
:404B000000000000010000000000803E007D0000200000000048E801010000000000000000000000000000000000000000000000000000000000000000000000C8490000D6
:404B4000000000000000000000000000000000000000000000000000000000000000000000000000000000000000000000000000000000000000000000000000DC00002039
:404B8000CA490000000000000000000000000000000000000000000000000000000000000000000000000000000000000000000000000000000000000000000000000000E2
:404BC00000000000000000000000000000000000000000000000000000000000000000000000000000000000000000000000000000000000000000000000000000000000B5
:404C00000000000000000000000000000000000000000000000000000000000000000000000000000000000000000000000000000000000000000000000000000000000074
:404C40000000000000000000000000000000000000000000000000000000000000000000000000000000000000000000000000000000000000000000000000000000000034
:404C800000000000000000000000000000000000000000000000000000000000000000000000000000000000000000000000000000000000000000000000000000000000F4
:0200000490303A
:020000007D067B
:0200000490402A
:4000000000000000000000000000000000000000000000000000000000000000000000000000000000000000000000000000000000000000000000000000000000000000C0
:0200000490501A
:0C0000000002112511A10001113D8EA786
:0200000490600A
:0100000001FE
:00000001FF