:400000000020002011000000F1090000F109000010B500F0F5FCC04610B51222204B1A6000F0DEFE1F4801F077FB202000F08EFE1D498023DB050B60B02252011B4B1A6046
:400040001B4B1C4818601C4802601C4818601C4802601C4A1A60802212061B4B1A608022D2021A4B1A604222194B1A60013A194B1A60013A184B1A606332184B1A60184BBF
:400080000B609B3A174B1A60164B1B681B07FBD40122144B1A601032014B1A6010BDC04630001040001BB7000C020B40080301400000014042FF00800403014041FF008077
:4000C0000003014040FF008008010B4000010B40140101400C0101400801014008020B400500004010020B4010B572B600240FE024486200131959000B00411889881A5A3C
:40010000C31858880004104300F06CFC0134E4B2012CEDD999231C4A13601C491C4A11601C4A136099231B041B4A13601B4A13601B4A13601B4A117806230B43DBB2137015
:40014000194A1A4B1A600223194A1360312219490A6019490B6019490B6019481949086019490B60B238FF381849086018490B6018490A60184A1360FFF74EFF00F022FCEA
:4001800010BDC046402500000001024099EE0000000302400007024000500F4010500F4030500F4000700F40B60DD8000800044000010440080104401801044000030440B6
:4001C000B10D000008030440180304400804044000070440080704401807044010B5064C2378002B07D1054B002B02D0044800E000BF0123237010BD400100200000000070
:4002000030240000084B10B5002B03D00749084800E000BF07480368002B00D110BD064B002BFBD09847F9E7000000004401002030240000C00000200000000070B50024AA
:400240000DE00C4D2B78DBB20B4AD05CC0B201F0D3F82B780133DBB22B700134E4B2054B1A78D2B25B78DBB29A4201D0032CE8D970BDC046600100200C03002010B509E09B
:40028000064AD378DBB2064CE154D3780133DBB2D370013001780029F2D110BD600100200402002010B509E0064A5378DBB2064CE15453780133DBB2537001300178002937
:4002C000F2D110BD600100200C030020F0B587B001236A461380093353805A339380FA239B00D3801B4B13810426002727E035007300002103AA995206E003A96C00625A54
:4003000001326252C31A98B26A006B46D35A9842F3D203ABD35A002B03D1002F01D1002E0BD13033DBB20C4AD178C9B20B4C6354D3780133DBB2D3700127013E36B2002EFF
:40034000D5DA054BDB78DBB20021044AD15407B0F0BDC04610270000600100200402002070B58EB001230193093302935A330393FA239B0004931E4B05931E4B06931E4BF8
:4003800007931E4B08931E4B09931E4B0A930925002623E02A0000210BAB595504E00BACA35C0133A354401A930001A959588842F5D20BAB9B5C32001A4301D1002D0BD1D9
:4003C0003033DBB2104A5178C9B2104C635453780133DBB253700126013D6DB2002DD9DA094B5B78DBB20021084AD1540EB070BD10270000A086010040420F0080969800D5
:4004000000E1F50500CA9A3B600100200C030020F8B50700002100251DE0AB00164A9B5CBB4216D1AB00D31800225A80013EF6B2124B1E71280009E0441C0F498000A30064
:400440000818C918042201F0E5FEE0B2B042F3D301210135EDB2094B1E79B542DDD3002908D10748FFF70AFFB8B2FFF72FFF0548FFF704FFF8BDC0468804002060010020A2
:40048000542400007824000010B50400FFF7C0FF002C03D10348FFF7F1FE02E00248FFF7EDFE10BD7C2400008C24000070B504000C4B1B78DBB2042B0DD80A4A10780A4D69
:4004C0004000445513785B00EB18597013780133DBB2137005E00548FFF7D0FEA0B2FFF7F5FE70BD0B03002010040020AC24000070B51F4B1B78002B35D01E4B1C78E4B22D
:400500005878C0B2002301220FE05100194D69184978C9B2884206D9510068184078C0B24C5DE4B213000132D2B211490978C9B28A42EAD30E490A78013AD2B20A700CE046
:400540005D1C0C4A6900885CC0B25B00985451184978C9B2D3185970EBB2054A1278D2B29342EDD302E00448FFF788FE200070BD0B03002010040020C024000010B50400B8
:40058000430603D5012000F0EBFD02E0002000F0E7FDA30603D5012000F0B8FA02E0002000F0B4FAE30603D5012000F073FA02E0002000F06FFA230703D5012000F076FA4A
:4005C00002E0002000F072FA630703D5012000F079FA02E0002000F075FAA30703D5012000F07CFA02E0002000F078FAE30703D5012000F07FFA02E0002000F07BFA10BD89
:4006000010B500F089FC00F09DFD00F01DFE01F009F800F0D3FE01F06FF800F0CFFD0020FFF7ACFF10BDC04670B50C4C21000C4800F03EF9206801F061FD0022094B01F039
:4006400047FA094DA860E960606801F057FD0022044B01F03DFA2861696170BD2C040020A401002080842E416001002010B582B0164C2000FFF716FE2478303CE4B200231F
:4006800006E0591C114A525C303A01A8C254CBB2042BF6D90E48FFF705FE2000FFF760FE0C48FFF7FFFD01AC2078FFF759FE6078FFF756FEA078FFF753FEE078FFF750FE7A
:4006C0000548FFF7EFFD02B010BDC04604030020E4240000A8240000FC24000070B562B6002306E09A0044498A180021518001339BB2032BF6D90023404A1370404A13706F
:40070000404A1370404A1380FFF77AFF3F4B1B78002B63D072B6FFF7EBFE3D4A107662B601284BD0002804D0022857D0032848D04AE0384A13780133DBB21370C72B0AD15D
:400740000022344B1A70304B1888013080B21880C0B2FFF713FF304A13780133DBB213701378182B02D106222B4B1A702A4B1B78052B02D10022224B1A70254B1D7900245E
:4007800018E0A3001C4AD3185B88002B10D0013B9BB2A20018498A185380002B08D1A200505CFFF771FE6B1E9C4201DA013CA4B20134A4B2ABB29C42E3D30FE0FFF734FF3E
:4007C0000CE0FFF753FF09E01448FFF757FD104B187EFFF77BFD1248FFF750FD0C4B1A78D2B25B78DBB29A4290D0084B1B78002B8CD1FFF723FD89E788040020A0010020D0
:40080000000200203A040020380400200B0300206001002084040020D00400200C25000030250000F0B585B0041E38D00378002B37D02E2101F0FFFC061E34D0051B023D98
:400840000522002102A801F0EEFC2A00210002A801F009FD0A22002102A801F0DDFD070008220021684601F0DEFC61190222684601F0F9FC711C04226B46981C01F0F3FC08
:400880000A220021684601F0C7FD83001B185800062101F031F8054B7B43C01804E0002002E0002000E0002005B0F0BD40420F00F0B59FB00F00002875D0002975D005ACCB
:4008C00063220100200001F0CEFC00226323E25404AA3A49200001F008FD002867D0384901F0B7FC061E64D1344D04AA2900002001F0FBFC040004AA2900002001F0F5FC58
:40090000029004AA2900002001F0EFFC019004AA2900002001F0E9FC039004AA2900002001F0E3FC04AA2900002001F0DEFC00280DD00378412B0AD1002C08D0019A002A48
:4009400005D02378002B02D01378002B04D10023BB603B607B602DE02000FFF763FF3860029B002B04D01B78532B01D1404238600198FFF757FF7860039B002B04D01B7828
:40098000572B01D1404278603B68002B02D07B68002B04D10023BB603B607B600AE00123BB60012606E0002604E0002602E0002600E0002630001FB0F0BDC04634250000D3
:4009C000382500000323044A1360044A13600022034B1A607047C0463000304030003140000E3F4010B50A00002101F01CFC10BD10B501F0E3FB03680C2B00D1FEE7FEE7E6
:400A000070B50F4E0F4D13E029686B68AC68002202E001C901C30432A242FAD1E868002202E0002102C304328242FAD11035013E002EE9D101F0C8FBFFF750FEFEE7C046A8
:400A400001000000E426000010B50E4A136801218B43136000230AE0032B03D89A000A49505800E009489900094A885001332F2BF2D9FFF739FB034A116801230B431360A2
:400A800010BDC0460000104000000000F10900000000002004490A68D2B202239A43400018401043086070470000044004490A68D2B204239A4380001840104308607047D5
:400AC0000000044004490A68D2B208239A43C00018401043086070470000044004490A68D2B240239A43800118401043086070470000044004490A687F231A40C301D8B27E
:400B0000104308607047C04600000440044A1368DBB201218B430840184310607047C0460000044000230AE00D4A12683F210A400C49C95C8A4201D1033303E001332D2B5A
:400B4000F2D9032308490868084A02400A60084A944663441B78DBB2064A13607047C0462CFF0B404C25000000002240FFFFFFBFCDF1FF0F28FF0B40034B18688023DB05BE
:400B8000184000D001207047000022401F2318401E3B8340014A13607047C04600E100E01F2318401E3B8340014A13607047C04680E100E001BE704770B504000D001F287C
:400BC00002D90020FFF7F6FF1034A40080239B059C4664442068256070BDC04670B504000E00032902D90020FFF7E4FF1F2C02D90020FFF7DFFF03252540ED00063500F024
:400C000094FDA408A400074B9C46644421680323AB4099430B003100A9401943216000F088FD70BD00E400E010B5040006E0084B586800F071FD074B9C46644480231B025D
:400C40009C42F4D8024B9868604300F065FD10BDC40000200080FFFF70B582B000F0E0F800285DD000F061FD050000230AE02D4A12683F210A402C49C95C8A4201D103337C
:400C800003E001332D2BF2D903230021274A1160274A1268D20606D1254802681F318A4313390A430260234C2168234A1140234A5A438023DB019C466244D20B013A520512
:400CC000520D0B001343A0225203134323601C4B1B680193302000F02FFD1A4A13688021C9050B4313602668174B1E40002407E00120FFF799FF1034A30533430D4A136017
:400D0000EE2CF5D90120FFF78FFFFF239B051E43084B1E60019A0A4B1A60280000F009FD02B070BD2CFF0B404C25000028FF0B4034FF0B400800224000F800C040420F0041
:400D40003000104000002240FFFF3FC030B587B0040000F0EAFC0500FFF70EFF002803D0FFF7E0FE012100E00021104B1B6800930F4B1B680193033C0E4B1B5D02930E4BC4
:400D80001B68039304AA0D4B04936B4605930C4B1A600C480C4A10601B68012901D1FFF75BFF280000F0C5FC07B030BD08010B4000010B404C25000030001040B6EA0000CC
:400DC000080010401700008004001040034B1868C0231B02184000D00120704700010B4010B50D4B1A6801218A431A601A68022082431A60094A10683024A043203C2043EA
:400E000010601068093CA043014311601A68802109060A431A6010BD00002240000F2240034B1B68002B01DA012000E0002070470000224010B500F078FC044A1368C02170
:400E400009020B43136000F074FC10BD00010B4010B500F06AFC08490A68084B1A408024E40122430A600A6813408022120213430B6000F05EFC10BD00010B40FF3FFFFF6F
:400E8000024B1868024B18407047C04610020B400404040070B5050000F047FC0400FFF795FF002803D0FFF7D3FF012100E0002108482840084A1568084B2B4018431060B9
:400EC0001368012901D1FFF7B5FF200000F031FC70BDC0460404040010020B40FBFBFBFF10B50820FFF752FE10BDC04610B500F093F810BD10B500F02DF810BD10B5054A3A
:400F00001368802109060B431360FFF7E9FFFFF7EDFF10BD0000244010B5064B1B78002B04D1FFF7E7FF0122024B1A70FFF7E6FF10BDC0467C010020014B18687047C04681
:400F400040032440024B1B681F2018407047C0460803244070B51B4A1B4B1A6000241B4B1C601B4A1B4B1A601B4B1C4A136007211B4A11601B4A146006391B4A11601B4AF2
:400F800013601B4B1C6004251A4B1D600820FFF707FE03210820FFF721FE17490820FFF70BFE164B1C60164B1C60164B1C60164B1C60164B1D60164B1C601A68154B1A801B
:400FC00070BDC0460B000002000024404000244001000A004800244007000080000324400403244010032440440024400002244004022440500024408D170000880E244058
:40100000C80E2440480F2440080F2440C80F2440880F24408401002005490B68F0229343603A13430B60034B1A88034B1A6070470001024084010020880F244010B5FFF754
:4010400081FF002802D0FFF777FF01E0064B1868064A1368D821890011601B02D82292021340184310BDC04640032440C00F244070B5FFF767FFC5B200240CE0194A16781B
:40108000F6B2731CDBB21370FFF7D8FFC0B2164B98550134E4B2AC42F0D3FF22134B1A60104B1B78013B104AD35C0D2B19D107E00D4AD25CD2B20E49CA540133DBB200E00C
:4010C0000023084A1278D2B29342F1D3054A1378DBB208490B700023137002210120FFF7E5F970BDA00100201C040020C00F2440A4010020A1010020014B18667047C04674
:401100000000002010B5040000F00FFB044A1368C0218B43A4011C43146000F00AFB10BD08E400E080225200014B1A607047C04600E100E080225200014B1A607047C0469F
:4011400080E100E010B5FFF7F5FF0448FFF7D4FF0320FFF7D7FFFFF7E5FF10BD7110000004490A68D2B208239A43C000184010430860704700040440014BD8657047C046F0
:401180000000002010B5040000F0CFFA044A13689B009B08A4071C43146000F0CAFA10BD04E400E08022014B1A60704700E100E08022014B1A60704780E100E010B5FFF7C4
:4011C000F7FF0448FFF7D8FF0320FFF7DBFFFFF7E9FF10BDE51100008022014B1A60704780E200E010B5FFF74BFE0400074B1B78DBB2032B03D802210020FFF757F9FFF7E9
:40120000EBFF2000FFF746FE10BDC0460B03002010B50920FFF7BAFC10BDC04610B500F085F810BD10B500F01FF810BD10B5054A1368802109060B431360FFF7E9FFFFF790
:40124000EDFF10BD0000254010B5064B1B78002B04D1FFF7E7FF0122024B1A70FFF7E6FF10BDC0468801002070B51B4A1B4B1A6000241B4B1C601B4A1B4B1A601B4B1C4AF9
:40128000136007211B4A11601B4A146006391B4A11601B4A13601B4B1C6004251A4B1D600920FFF77DFC03210920FFF797FC17490920FFF781FC164B1C60164B1C60164B85
:4012C0001C60164B1C60164B1D60164B1C601A68154B1A8070BDC0460B000002000025404000254001000A00480025400700008000032540040325401003254044002540E0
:40130000000225400402254050002540BD170000880E2540C80E2540480F2540080F2540C80F2540880F25409001002005490B68F0229343603A13430B60034B1A88034BB9
:401340001A6070470003024090010020880F254010B500F02BFA002802D000F021FA01E0064B1868064A1368D821890011601B02D82292021340184310BDC0464003254027
:40138000C00F254010B50B20FFF700FC10BDC04610B500F0A1F810BD10B500F03BF810BD10B5054A1368802109060B431360FFF7E9FFFFF7EDFF10BD0000274010B5064B6A
:4013C0001B78002B04D1FFF7E7FF0122024B1A70FFF7E6FF10BDC04694010020014B18687047C04640032740024B1B681F2018407047C04608032740044B1B681F221340F2
:40140000082BF9D0024B18607047C046080227404002274070B51B4A1B4B1A6000241B4B1C601B4A1B4B1A601B4B1C4A136007211B4A11601B4A146006391B4A11601B4ACF
:4014400013601B4B1C6004251A4B1D600B20FFF7A7FB03210B20FFF7C1FB17490B20FFF7ABFB164B1C60164B1C60164B1C60164B1C60164B1D60164B1C601A68154B1A8076
:4014800070BDC0460B000002000027404000274001000A00480027400700008000032740040327401003274044002740000227400402274050002740D1170000880E27402E
:4014C000C80E2740480F2740080F2740C80F2740880F27409C01002005490B68F0229343603A13430B60034B1A88034B1A607047000702409C010020880F274010B5FFF748
:4015000073FF002802D0FFF769FF01E0064B1868064A1368D821890011601B02D82292021340184310BDC04640032740C00F274070B500F03BF9C5B200240CE01E4A16789F
:40154000F6B2731CDBB21370FFF702FFC0B21B4B98550134E4B2AC42F0D3FF22184B1A60154B1B78013B154AD35C0D2B1DD107E0124AD25CD2B21349CA540133DBB200E0FB
:4015800000230D4A1278D2B29342F1D30A4A1378DBB20D490B700023137002210220FEF785FF0622094B1A7002E00022074B1A700022074B1A7070BD00020020B80100205D
:4015C000C00F25403C0400200A030020D0040020A0010020014B58667047C0460000002010B5040000F0A1F8044A1168044B0B40A4031C43146000F09CF810BD08E400E044
:40160000FF3FFFFF80229200014B1A607047C04600E100E080229200014B1A607047C04680E100E010B5FFF7F5FF0448FFF7D2FF0320FFF7D5FFFFF7E5FF10BD3115000062
:4016400070B5FFF7D1FEC5B200240CE0144A1678F6B2731CDBB21370FFF750FFC0B2114B98550134E4B2AC42F0D3FF220E4B1A600B4B1B78062B12D102210320FEF716FF09
:401680000022074B1A70002304E00021054AD1540133DBB2024A1278D2B29342F5D370BD3A04002004030020C00F2740014BD8667047C0460000002010B5040000F035F8A3
:4016C000044A13689B009B08A4071C43146000F030F810BD08E400E080221201014B1A607047C04600E100E080221201014B1A607047C04680E100E010B5FFF7F5FF044847
:40170000FFF7D4FF0320FFF7D7FFFFF7E5FF10BD41160000000000000230800803D00138FDD1C046C046C0467047EFF3108072B6704780F31088704770B50400FFF7F5FF70
:401740000500102C05D8104A136803218B43136016E0202C07D80C490B6803229343023A13430B600CE0302C07D807490B6803229343013A13430B6002E00020FFF71AFA43
:401780002800FFF7D6FF70BD3000104010B5034B1B68002B00D0984710BDC04680010020014B18687047C04640032540024B1B681F2018407047C0460803254010B5034BCD
:4017C0001B68002B00D0984710BDC0468C01002010B5034B1B68002B00D0984710BDC04698010020002243088B4274D303098B425FD3030A8B4244D3030B8B4228D3030CAE
:401800008B420DD3FF22090212BA030C8B4202D31212090265D0030B8B4219D300E0090AC30B8B4201D3CB03C01A5241830B8B4201D38B03C01A5241430B8B4201D34B0323
:40184000C01A5241030B8B4201D30B03C01A5241C30A8B4201D3CB02C01A5241830A8B4201D38B02C01A5241430A8B4201D34B02C01A5241030A8B4201D30B02C01A524131
:40188000CDD2C3098B4201D3CB01C01A524183098B4201D38B01C01A524143098B4201D34B01C01A524103098B4201D30B01C01A5241C3088B4201D3CB00C01A52418308C2
:4018C0008B4201D38B00C01A524143088B4201D34B00C01A5241411A00D20146524110467047FFE701B5002000F0F0F802BDC0460029F7D076E7704703460B437FD400222E
:4019000043088B4274D303098B425FD3030A8B4244D3030B8B4228D3030C8B420DD3FF22090212BA030C8B4202D31212090265D0030B8B4219D300E0090AC30B8B4201D384
:40194000CB03C01A5241830B8B4201D38B03C01A5241430B8B4201D34B03C01A5241030B8B4201D30B03C01A5241C30A8B4201D3CB02C01A5241830A8B4201D38B02C01AF1
:401980005241430A8B4201D34B02C01A5241030A8B4201D30B02C01A5241CDD2C3098B4201D3CB01C01A524183098B4201D38B01C01A524143098B4201D34B01C01A5241B3
:4019C00003098B4201D30B01C01A5241C3088B4201D3CB00C01A524183088B4201D38B00C01A524143088B4201D34B00C01A5241411A00D201465241104670475DE0CA0F2B
:401A000000D04942031000D34042534000229C4603098B422DD3030A8B4212D3FC22890112BA030A8B420CD3890192118B4208D3890192118B4204D389013AD0921100E0CA
:401A40008909C3098B4201D3CB01C01A524183098B4201D38B01C01A524143098B4201D34B01C01A524103098B4201D30B01C01A5241C3088B4201D3CB00C01A524183080D
:401A80008B4201D38B00C01A5241D9D243088B4201D34B00C01A5241411A00D20146634652415B10104601D34042002B00D54942704763465B1000D3404201B5002000F006
:401AC00005F802BD0029F8D016E770477047C046F0B556464D4644465F46F0B41D000E034C00CB0F87B0070092468146360B640D98466AD06D4B9C4235D08022430F120481
:401B00001343F6001E43C3009946694B00279C460023644402932B0368001B0BED0F51469B46400D009500D178E0604B98426CD05B46DA004B0F802109040B4313439B4635
:401B40005346D9005A4B9C46002360444246201A6A40924601901F430F2F00D9B0E05548BF00C0598746374300D088E0002399460233082700260293CDE74346B3464946ED
:401B80000093029B009A9246022B00D0BFE1002153460122002689461A40444B002136030C0D2405360B2643434C1B0526401E437600D207760816434846310007B03CBCDB
:401BC00090469946A246AB46F0BD330003434FD0002E00D1BCE1300000F0D2FA03000B3B1C2B00DDADE11D220100D31A08393A008F408E40DA40B9461643304B00279C4654
:401C0000002360444442029385E753465A4613432CD1002300219B46023397E70B4320D05B46002B00D19EE1584600F0A9FA03000B3B1C2B00DD8FE102005946083A9140D6
:401C40008B461D21CB1A5146D9400B0059460B4351469B469140194B9C4660444042002374E7002300219B4601336FE703236DE70023994601330427002602934BE70323F8
:401C80000C27029347E70122D51A382D00DCB0E153461A4000210023002689467EE700238026994600223603004B77E7FF07000001FCFFFF7C250000FFFF0F80F3030000E8
:401CC0005E4500D972E100D16DE1019B4D46013B01930023340002935B461E020B0E1E430B020393330C994633041B0C494620000093FFF777FD009B370043430600494618
:401D000020009846FFF7F4FD2C0C09040C43A04509D9E419731EA74200D95CE1A04500D859E1023EE4194346E41A49462000FFF759FD0300009A80465343494620009B4697
:401D4000FFF7D6FD2A040904120C0A4393450DD94346D219013B974200D93AE1934500D837E102235B429C46D219E0445B46D21A4346360433439B460399180C0B0C1D00A3
:401D8000059309045B46090C0C001B041B0C4443049159436B4368431B190D0CEB189C4203D980246402A44660441C0C09041B04090C20185D18824200D2DEE000D1D7E0D1
:401DC000161A029B9C465D1BAC459B415B42F61AB74200D106E149463000FFF703FD009B04004343494630009846FFF781FD2E0C09040E43B04509D9F619631EB74200D9D5
:401E0000F3E0B04500D8F0E0023CF6194346F31A494618000293FFF7E5FC009B06004343494602989846FFF763FD2D0409042D0C0D43A84509D9ED19731EAF4200D9D6E00B
:401E4000A84500D8D3E0023EED192404210043463143049E059A3000ED1A0B040C0C1B0C58436643534354439A19030C9B189E4203D980225202944664441A0C00041B0435
:401E8000000C14191B18A54250D34DD001231943964A019B94466344002B00DCF3E64A0709D00F220A40042A05D00A1D8A42894149428B4411005A46D20108D55A468C4B9B
:401EC0001A4093468022D2009446019B6344894A934200DD5BE65A46C908500708435602514601225B058146360B5B0D0A4055E680231B031E4211D05A461A420ED15E465D
:401F00001E433603360B2A0089467B4B46E6032B00D1E1E0012BBBD11A40BBE61E433603360B4246744B39E6002BB1D07D194A1EAF4252D91100A542A8D1039A9A42A5D101
:401F4000A6E703003E00283B9E400023994654E600F016F9203041E603005246283B9A400021934677E6504600F00AF920305EE6029B0026AB4200D323E7039E0299B44691
:401F800061448846B045B6415B467642F619B218013B0291974213D290424FD800D18EE0161A9B460DE7894500D28EE674084B46F60735005B081D434B46DB0702938BE637
:401FC0009742EDD10399029CA142E5D93E1A9B46F7E69846CAE61E00A5E6AC423ED874D0110053E70121494252E71C000EE71E002BE71F2D3CDC20230A0058465B1B9840CB
:40200000EA4099400243481E81415E461143EE404B0709D00F230B40042B05D00B00191D99429B415B42F61833023CD55346012200211A40002601238946AFE502235B42CF
:402040009C46039CE344A446029B63449846A045B6417642F6190293B218B1E603988A1E41008142B6417642F619AD19039161E71F225242D31A5A46DA401300202D29D097
:4020800040225846551BA8400143481E814107200B4318400026002809D00F2200261A401900042ABBD10B0070077602360BDB0803439946012253461A4000236EE502997A
:4020C0008D42BBD89B4600267BE603989842C5D3110032E70020D7E780265B4636031E433603360B009A8946034B57E5FF030000FFFFFFFEFE070000FF07000070B500285E
:4021000030D0C317C4185C40C50F200000F038F8174B184A1B1AD21A1F2A18DD164AD21A9440002224035B05240B5B0D0021100024030A0D1205240B1443104A1B051440DC
:402140001C436400ED0764082C43210070BD210091400A000B21081AC4405B052403240B5B0DE3E70025002300240022DEE7C0461E0400003304000013040000FFFF0F80F3
:402180001C2101231B04984201D3000C10391B0A984201D3000A08391B09984201D30009043902A2105C40187047C04604030202010101010000000000000000014B186866
:4021C0007047C046380100200E4B70B500251E000D4CE41AA410A54204D0AB00F35898470135F8E700F06CFA084B00251E00084CE41AA410A54204D0AB00F35898470135A0
:40220000F8E770BDCC260000CC260000CC260000D4260000002310B59A4203D0CC5CC4540133F9E710BD03008218934202D019700133FAE770470200C9B21378002B03D06B
:40224000994204D00132F8E71800002900D11000704702780B78002A03D0013001319A42F7D0D01A7047030030B5002A0DD00C7801335D1E013A2C700131002CF5D19A1854
:402280009A4202D01C700133FAE730BDF0B5041E0CD11468201E09D126E03778002F0CD00136B842F9D1002B04D02C00651C20780E00F2E71560237015E0002808D1106056
:4022C00012E00778BE4207D00130002FF9D11D006B1C2E780800F4E7002E02D00021297000E0330013602000F0BD10B50123FFF7CDFF10BDF0B51E00454B87B01B6801921A
:40230000029308220B00059003911C7802995D1C09194878104001D02B00F6E72D2C04D19D1C5C780123009304E000902B2C01D15C789D1C002E02D0102E0AD162E0302CA4
:402340005ED120222B789343582B54D110266C780235009F31007B1E9F412E4BFF183800FFF7C6FA380004913100FFF73BFA00230322070094461800029A12195178042293
:40238000114201D0303C07E06246114017D03722012900D02032A41AA64210DD5A1C0BD0B84207D802D1049B9C4203DC70430123201801E001235B422C780135DCE75A1C71
:4023C0000BD10098059A431E9841124BC01822231360019B002B0AD117E0009A002A00D04042019A002A10D0039A002B00D06A1E019B1A6009E03024002EAAD10826A8E776
:402400000A26A6E7302C9CD0A3E707B0F0BDC0463C010020FFFFFF7F10B513000A00010002480068FFF766FF10BDC04638010020000000004552523A2063616E277420619D
:4024400064642074696D657220455654200000000D0A00005741524E3A20636F756C64206E6F742063616E63656C2074696D657220455654200000000A0D000048656C6C61
:402480006F20576F726C6421000000004552523A20756E6B6E6F776E2047502074696D6572206576656E740D0A0000004552523A2074736B20512066756C6C3A00000000AD
:4024C0004552523A206E6F207461736B7320696E20717565756520746F20646571756575650D00000A2D2D2D2D2D2D2D7061636B657420747970653A000000002D2D2D2D8F
:402500002D2D2D2D2D2D2D2D2D2D0A004552523A20756E68616E646C65207461736B20696E207461736B207175657565200000000D0000002C00000024474E474C4C00006A
:4025400000300F40000400400F400004030405060708090A0B0C0E0F101112131415161718191B1C1D1E1F2021222325262728292A2B2E2F3031323334350000C01C000079
:402580008E1B0000941C0000841B0000941C00009E1C0000941C0000841B00008E1B00008E1B00009E1C0000841B00007A1B00007A1B00007A1B0000F01E0000430000208F
:4025C00020202020202020202828282828202020202020202020202020202020202020881010101010101010101010101010100404040404040404040410101010101010C3
:40260000414141414141010101010101010101010101010101010101010110101010101042424242424202020202020202020202020202020202020202021010101020008C
:40264000000000000000000000000000000000000000000000000000000000000000000000000000000000000000000000000000000000000000000000000000000000005A
:40268000000000000000000000000000000000000000000000000000000000000000000000000000000000000000000000000000000000000000000000000000000000001A
:4026C000F8B5C046F8BC08BC9E46704705020000490A0000F8B5C046F8BC08BC9E467047DD010000F8260000C000002080000000A0030000000000000000000001000000F4
:402700000000803E007D0000200000000048E8010000000000000000000000000000000000000000000000000000000000000000BC2500000000000000000000000000002C
:40274000000000000000000000000000000000000000000000000000000000000000000000000000000000000000000000000000D8000020BE25000000000000000000007E
:402780000000000000000000000000000000000000000000000000000000000000000000000000000000000000000000000000000000000000000000000000000000000019
:4027C00000000000000000000000000000000000000000000000000000000000000000000000000000000000000000000000000000000000000000000000000000000000D9
:402800000000000000000000000000000000000000000000000000000000000000000000000000000000000000000000000000000000000000000000000000000000000098
:402840000000000000000000000000000000000000000000000000000000000000000000000000000000000000000000000000000000000000000000000000000000000058
:0200000490303A
:02000000746426
:0200000490402A
:4000000000000000000000000000000000000000000000000000000000000000000000000000000000000000000000000000000000000000000000000000000000000000C0
:0200000490501A
:0C0000000002112511A10001113186053C
:0200000490600A
:0100000001FE
:00000001FF