:400000000020002011000000951500009515000010B501F0C7FAC04670B5284C12232360202001F05BFF264A264B1A600025264B1D60264B264A1A60C0218900254A1160AF
:40004000254A1A60F8214901244A1160244A1A60B0214901234A1160234A1A608A210902224A1160224A1A6082221206214B1A608022D202204B1A604023204A1360204A6D
:400080001360204A1360204A136041221F4B1A6002321F4B1A60013A1E4B1A6002321E4B1A601E49072001F04FFE072001F036FE1B4B1D601123236070BDC046300010401A
:4000C0000600008004010B40000301400000014040FF00800403014041FF00800C03014043FF00800803014042FF00801003014044FF008008010B4000010B404001014086
:400100003801014034010140300101402C010140280101400C01014008010140312000000C020B4010B572B60122344B1A7000240FE033486200131959000B004118898840
:400140001A5AC31858880004104301F0EBF90134E4B2012CEDD92A4801000C31343001F0C7F9C0229200274B1A6080221201264B1A60264A264B1A609922264B1A609923E4
:400180001B04254A1360254A1360C0218903244A1160244A1360244A13600322234B1A60234B1A602349087806230343DBB20B702149224B19600421214B19602149224BC5
:4001C00019605F21214B19602149224B1960224B1A604F32214B1A60214A224B1A600223214A1360214A13603121214A1160214A1360FFF711FF01F0ABF910BD1C700F4001
:40020000042C0000000102400002024099EE0808000302400004024000500F4010500F4018500F4020500F4030500F402000104000800F4000700F40B66D1B0008000440CA
:400240000001044080B10C000801044000020440806D1B00080204401802044000030440B16D1800080304401803044000040440080404401804044010B5064C2378002BB5
:4002800007D1054B002B02D0044800E000BF0123237010BD4801002000000000CC2A0000084B10B5002B03D00749084800E000BF07480368002B00D110BD064B002BFBD02C
:4002C0009847F9E7000000004C010020CC2A0000C000002000000000002206E008490B780133DBB20B700132D2B2054B1978C9B25B78DBB2994201D0032AEFD97047C04613
:400300006401002010B509E0064A5378DBB2064CE15453780133DBB25370013001780029F2D110BD6401002000020020F0B587B001236A461380093353805A339380FA23F3
:400340009B00D3801B4B13810426002727E035007300002103AA995206E003A96C00625A01326252C31A98B26A006B46D35A9842F3D203ABD35A002B03D1002F01D1002E24
:400380000BD13033DBB20C4A5178C9B20B4C635453780133DBB253700127013E36B2002ED5DA054B5B78DBB20021044AD15407B0F0BDC046102700006401002000020020C2
:4003C00070B50400134B9D78042D0CD918E09A001148125CA24203D19B00C318598005230133DBB200E00023AB42F0D311D10A4AAB009C54D31859800135064B9D7008E03E
:400400000648FFF77FFFA0B2FFF790FF0448FFF779FF70BD64010020B00300200C2B0000AC2B0000F8B50700002100251DE0AB00164A9B5CBB4216D1AB00D31800225A8067
:40044000013EF6B2124B9E70280009E0441C0F498000A3000818C918042202F025FBE0B2B042F3D301210135EDB2094B9E78B542DDD3002908D10748FFF744FFB8B2FFF7C9
:4004800055FF0548FFF73EFFF8BDC046B003002064010020282B00004C2B000070B504000C4B1B78DBB2042B0DD80A4A10780A4D4000445513785B00EB185970137801335A
:4004C000DBB2137005E00548FFF71CFFA0B2FFF72DFF70BD2A03002038030020502B000070B51F4B1B78002B35D01E4B1C78E4B25878C0B2002301220FE05100194D691851
:400500004978C9B2884206D9510068184078C0B24C5DE4B213000132D2B211490978C9B28A42EAD30E490A78013AD2B20A700CE05D1C0C4A6900885CC0B25B0098545118B7
:400540004978C9B2D3185970EBB2054A1278D2B29342EDD302E00448FFF7D4FE200070BD2A03002038030020642B000010B50400430603D5012001F0A7FE02E0002001F0EE
:40058000A3FEA30603D5012001F0D0F902E0002001F0CCF9E30603D5012001F04DF802E0002001F049F8230703D5012001F050F802E0002001F04CF8630703D5012001F053
:4005C00053F802E0002001F04FF8A30703D5012001F056F802E0002001F052F8E30703D5012001F059F802E0002001F055F810BD10B501F0C3F901F04FFB01F045FE01F053
:40060000CFF801F0C9FA01F04FFE01F07BF8022001F05CF80020FFF7A9FF01F0C3FE01F033FF01F0A3FF02F013F802F06FF802F0A1F810BDF0B557464E464546E0B48246A5
:400640008946002804D1002001F082F800273CE0002001F05FF9F9E7B846244BDE5D002500242BE0224B1B68BF221340214A136073B2002B06DA1E4B1A68202313431D4A7E
:40068000136005E01A4B1B68DF221340194A13600A2002F095F86D00EDB2154B1A6840231343144A1360144B1B689B0602D501231D43EDB27600F6B20134E4B2072CD1D96C
:4006C0000E4B42469D540137FFB24F45C4D35346002B03D1012001F03BF802E0012001F019F91CBC90469946A246F0BD680300200402044000020440040104405003002038
:4007000070B5154C0D2323700B3B637002210020FFF790FF642002F053F8102323706225657002210020FFF785FF642002F048F811232370657002210020FFF77BFF642066
:4007400002F03EF8142323704C33637002210020FFF770FF70BDC0466803002070B572B62C4BA2221A7000225A700B210020FFF761FF294B1A791202D9780A4327490A807C
:400780009A78120259780A4325490A809A79120259790A4323490A80997A09025A7A114309B2214A11801A7A1202DB791A4312B21E4B1A8062B61E4B1B78002B0ED01D4B1F
:4007C0001B785B001C48185E1C4C2568281A20601B481B5E1B480468E31A0360174803685B180360174803689B180360114B1B785800114C01530133DBB211494252082B15
:4008000002D101210A4A117007221340094A137070BDC0466803002050030020FA0100206603002082030020EC030020160300208003002000030020C4030020C401002048
:40084000D80300202403002070B50E4C212323700025657002210120FFF7ECFE202323705833637002210120FFF7E4FE642001F0A7FF22232370657002210120FFF7DAFE98
:4008800070BDC0466803002010B5144BA7221A7000225A7002210120FFF7CCFE104B5B781B0719D5642001F08BFF0C4BE8221A7000225A7005210120FFF7BCFE084B9A78A3
:4008C000120259780A4307490A8019790902DA780B001343044A138010BDC0466803002050030020760300204203002010B5114A13889E339BB219B211800F4802880F4C7B
:40090000A446624412B202800D4800881B1A1BB2002908D0002A06DD9B000A4A11688C466344136004E09B00064A1168CB1A136010BDC0467603002042030020F10300003B
:40094000DA010020D401002010B5094A094B1A80FA242401200001F0D3FC200001F026FE200001F0B1FD200001F03CFD10BDC04602080000B801002070B50400FFF752FDFC
:40098000012C0CD0002C04D0022C3DD0032C46D04DE02948FFF7B6FCFFF756FF4AE07F2000F01CFF254C607800F018FF207800F015FF03210220FFF703FD214B00255D5FD4
:4009C0002900204B186801F057FF00B29E3084B21D4B1C8029001D4B186801F04DFF00B21B4B9C46604483B21A4A13806834FF34A4B2194A944204D96833FF339BB29342A0
:400A000018D8FFF7A1FF15E0802000F0E7FE134C607800F0E3FE207800F0E0FE0AE001220F4B1A700F4B1A880F4B1A8002E00F48FFF768FC70BDC046B02B00003003002083
:400A400084030020DC010020DA010020A4030020F103000078030020CE020000BC010020C00100208C0300201E030020BC2B000070B54E4B1A6893079B1A9B009B1A9B1290
:400A80001BB24B4A126891008A18921212B249490020095E8B4202DDC021490000E04649464B00201B5E9A4202DDC020400000E04148434B1B78002B0ED1424A128812B2DE
:400AC000414C2280414A128812B2414C2280414A128812B2404C2280404A1288404C2488121B12B2374C22803E4A12883E4D2D88521B12B2354D2A803C4A12883C4D2D8809
:400B0000521B12B2334D2A80228812B2394CA2421BDC2C4A128812B2374CA24215DB2B4A128812B2334CA2420FDC284A128812B2314CA24209DB2A8812B22E4CA24204DC77
:400B40002A8812B22C4CA24208DA0133DBB21C4A1370012B28D9FFF7F7FE25E00022184B1A70184B1B881BB2244A1468A4466344C9181160154B1B881BB2214A1468A446AA
:400B80006344C0181060134B1B881BB21D4A1468A446634413608913064A11808013074A10809B13184A138070BDC04624030020C40100202803002080FEFFFF5E03002056
:400BC000D8010020BE010020B4010020F801002062030020F003002018030020FA0100208E030020660300206403002082030020B2010020A047000060B8FFFF8803002060
:400C00007C030020D40100201C030020F0B55F4656464D464446F0B483B0514B1F88514B00229B5E5B10FB1A9BB24F4A0020105E4E4A0021525E5210121892B24C49002427
:400C40000C5FD900CB1A1BB25B109C46D600B21A12B25610610061184C0024B26410454D2B881BB29B110193434A9346128812B2921142498A46098809B28911884629887C
:400C80000DB23F49098809B2691A4912894659460D8829B23B4D2D882DB24D1B6D125146098809B2384B1B881BB2C91A4912019B63444B449BB2B218521996B2444464182E
:400CC000A4B2324A1278002A03D0314A0021525E02E0304A0021525E95B2EA1AA2182E498C46624492B294462C4A6146118059196118294B98464144294B198073191B1BD1
:400D0000284A90464344284A1380AA1B131B274A90464344264A13808C37BFB28C235B009F4203D88C2801DC8C3002DAFFF70CFE0EE0604601F0E4FA1D4B188801F036FC6A
:400D4000194B188801F0C0FB154B188801F04AFB03B03CBC90469946A246AB46F0BDC04628030020140300205E0300202C0300201C030020BE010020F8010020F003002005
:400D8000B40100206203002018030020C0010020F20100208C03002073140000FC0100202E03002093120000B00100208E1200009003002070B54D4B1B78DBB2082B00D954
:400DC00093E09B004A4AD3589F46484A53781B029278484C13432380A52000F0FFFCA52000F0FCFCA52000F0F9FC2388424A944663449BB2414A934277D9FFF7A5FD74E088
:400E00003A4A53781B02927813433D4A1380A52000F0E4FCA52000F0E1FCA52000F0DEFC63E0324A53781B0292781343354A1380A52000F0D3FCA52000F0D0FCA52000F043
:400E4000CDFC52E0294A517801230B401B02927813432D4A1380A52000F0C0FCA52000F0BDFCA52000F0BAFC3FE00024274B1C60274B1C60274B1C601E4B1C80204B1C80E2
:400E8000204B1C80244D280001F03AFA234801F08DFB234801F018FB280001F0A3FA214801F08EFC204B1C80204B1C801DE00023104A1380124A1380124A1380124A138098
:400EC000A52000F08BFCA52000F088FCA52000F085FC0AE0FFF738FDA52000F07FFCA52000F07CFCA52000F079FC70BDA8030020D02A0000140300200D0200001A04000055
:400F00002C030020F60100208C030020880300207C030020D40100201E140000391200003E12000000127A00B80100209C03002010B5264A13780133DBB21370032B18D151
:400F4000234B00229A5E234B00215B5E190032318A4204DD204A13880133138006E0323B9A4203DA1C4A1388013B13800022174B1A701A4C0023E05E194B1880164B1988FD
:400F8000184B1B88C91A8BB21AB222806932D20012B2921014490A801B1A9BB216214B439BB212490B809A1813B2114A1380114A934201DD0E4B1A800D4B00229A5E0E4B38
:400FC0009A4202DA1A000A4B1A8010BD460300208C0300201E03002044030020BA0100202003002060030020D6030020A0030020F2010020FF01000000FEFFFFF0B5474605
:4010000080B462B6002306E09A00D4498A180021518001339BB2032BF6D90422D04B1A700432D04B1A700023CF4A1370CF4A1370CF4A1370CF4A1360CF4A1360CF4A136051
:40104000CF49D04A1180D04A1370D04A13700022CF490B80CF490B80CF490B80CF490B80CF48D0490880D049D04C2180D04C2080D0480180D0490B60D0490B60D0490B8036
:40108000D0490A70D0490B80D0490B80D0490B806421D04B1980D04B1A70D04B1A70D04B1A70D04B1A70FFF7A3FACF4801F088FBFA242401200001F023F9200001F076FAD5
:4010C000200001F001FA200001F08CF9FFF718FB14210020FFF774F900260023984600F0E7FA00281AD0B74A13780133DBB21370012B13D9FFF732FB00F012FBA14B1A88ED
:40110000BA4B9A4207D1FFF7B3FCB64B1B78002B01D1FFF77BFD0022AA4B1A70B44B1B78002B00D1BDE172B6FFF7DAF9B14AD07062B6052800D9AAE18000AF4B1B589F46DE
:40114000FFF70CFB00229F4B1A708E4B1B88AB4A93421BD8AA4A0021525E86490868844662440A60A74A0021525E83490868844662440A60A44A0021525E8049086884462B
:4011800062440A6001337F4A13808AE180221201934225D1774C2268D2129C490A8076480268D2129A490A8074490A68D212994D2A800133734A13800023236003600B60F0
:4011C000954A1380A52000F009FBA52000F006FBA52000F003FB03210120FFF7F1F860E1824A934200D05CE1FFF742FC7D4B1B78002B01D1FFF70AFD684B00229A5E774B30
:401200001B78584258410121D22A00DC0021084207D00122714B1A70B4210320FFF7D0F83FE19F2A00DD3CE100236C4A13706A4A137036E10136F6B203233340032B03D186
:4012400002210520FFF72AF9C82E1CD147460137BBB29846062B15D10023464A1360464A1360464A13606D4C200001F049F86C4801F09CF96B4801F027F9200001F0B2F813
:40128000002600E00026374A13780133DBB2137033490B780133DBB20B701378182B02D10522304B1A702F4B1B78042B02D100222E4B1A702A4B1B78182B02D10522284BBE
:4012C0001A70274B1B78042B02D10022264B1A70484B9C78002718E0BB00204AD3185B88002B10D0013B9BB2BA001C498A185380002B08D1BA00505CFFF73EFB631E9F4264
:4013000001DA7B1E9FB27B1C9FB2A3B29F42E3D3C7E0FFF7B9FA1B4B1A88384B9A4200D99CE0414B00229A5E1E4B00215B5E9A4202DD1C4B1A8006E01C4B00215B5E9A4260
:4013400001DA1A4B1A80394B00215B5E18490020095E8B426CDD16490B8070E0B003002035030020F0010020F1010020EA030020B6010020880300207C030020D40100208C
:4013800002080000B80100200003002080030020140300202C030020F60100208C0300200080FFFFE8030020FF7F0000F401002030030020BC010020DC010020A403002028
:4013C000840300209E030020B4010020620300201803002044030020C0010020D403002046030020D801002080841E00010800002A03002064010020F42A0000FF0700002E
:40140000FA01002066030020820300208E03002064030020B201002020030020111200002C10000031100000760300204203002024490020095E8B4201DA22490B8022497A
:401440000868844662440A60204A11688C46634413601F4A13880133138022E0FFF746FA1FE0FFF7A7FC1B4AD3781B021A490B809078C3180B8053791B0218490B8012792F
:40148000D3189BB20B80642B01D9FFF751FD1448FEF738FF134BD878FEF748FF1248FEF731FF104B1A78D2B25B78DBB29A4200D115E60E4B1B78002B00D010E6FEF70CFF75
:4014C0000DE6C046BC010020DC010020A403002084030020E00100206003002022030020DC2B000064010020002C00002A030020F0B50025002711E0BB00C658F3B2FF225C
:40150000964308E06A008A181478A419527822700135013BDBB2002BF4D10137032FEBD9F0BDC04610B50A00002101F0C6FA10BD064B1B68002803D080221206134301E03B
:401540005B005B08014A13607047C04680033A4010B50323094A1360094A136080210906084A1160084A1360084A13600022084B1A600120FFF7DCFF10BDC046300030406D
:401580003000314000003A4000033A4040033A40000E3F4010B501F05BFA03680C2B00D1FEE7FEE770B50F4E0F4D13E029686B68AC68002202E001C901C30432A242FAD141
:4015C000E868002202E0002102C304328242FAD11035013E002EE9D101F040FAFFF70EFDFEE7C04601000000A82C000010B50E4A136801218B43136000230AE0032B03D883
:401600009A000A49505800E009489900094A885001332F2BF2D9FEF785FD034A116801230B43136010BDC0460000104000000000951500000000002004490A68D2B2102342
:401640009A43000118401043086070470000044004490A68D2B208239A43C00018401043086070470000044004490A68D2B204239A43800018401043086070470000044090
:4016800004490A68D2B202239A434000184010430860704700000440044A1368DBB201218B430840184310607047C04600000440024B1868000901231840704704010440EB
:4016C000014B18647047C0460000002010B5040001F07FF8044A1368C0218B43A4011C43146001F07AF810BD00E400E00122014B1A60704700E100E00122014B1A6070472F
:4017000080E100E010B5FFF7F7FF0448FFF7D8FF0320FFF7DBFFFFF7E9FF10BD2D1700000122014B1A60704780E200E010B572B6064B1B78DBB2042B03D801210120FEF73A
:40174000ADFEFFF7EDFF62B610BDC0462A03002004490A68D2B208239A43C00018401043086070470002044010B5082000F0D6FA10BDC04610B500F0A1F810BD10B500F039
:401780003BF810BD10B5054A1368802109060B431360FFF7E9FFFFF7EDFF10BD0000244010B5064B1B78002B04D1FFF7E7FF0122024B1A70FFF7E6FF10BDC0466801002082
:4017C000014B18687047C04640032440024B1B681F2018407047C04608032440044B1B681F221340082BF9D0024B18607047C046080224404002244070B51B4A1B4B1A60C4
:4018000000241B4B1C601B4A1B4B1A601B4B1C4A136007211B4A11601B4A146006391B4A11601B4A13601B4B1C6004251A4B1D60082000F07DFA0321082000F097FA1749B1
:40184000082000F081FA164B1C60164B1C60164B1C60164B1C60164B1D60164B1C601A68154B1A8070BDC0460B000002000024404000244001000A004800244007000080A4
:4018800000032440040324401003244044002440000224400402244050002440E1270000880E2440C80E2440480F2440080F2440C80F2440880F24407001002005490B68B9
:4018C000F0229343603A13430B60034B1A88034B1A6070470004024070010020880F244010B5FFF773FF002802D0FFF769FF01E0064B1868064A1368D821890011601B0252
:40190000D82292021340184310BDC04640032440C00F244004490A68D2B210239A43000118401043086070470002044004490A68D2B220239A4340011840104308607047EC
:401940000000044010B5092000F0E8F910BDC04610B500F085F810BD10B500F01FF810BD10B5054A1368802109060B431360FFF7E9FFFFF7EDFF10BD0000254010B5064BF1
:401980001B78002B04D1FFF7E7FF0122024B1A70FFF7E6FF10BDC0467401002070B51B4A1B4B1A6000241B4B1C601B4A1B4B1A601B4B1C4A136007211B4A11601B4A1460B0
:4019C00006391B4A11601B4A13601B4B1C6004251A4B1D60092000F0ABF90321092000F0C5F91749092000F0AFF9164B1C60164B1C60164B1C60164B1C60164B1D60164B81
:401A00001C601A68154B1A8070BDC0460B000002000025404000254001000A00480025400700008000032540040325401003254044002540000225400402254050002540A9
:401A400011280000880E2540C80E2540480F2540080F2540C80F2540880F25407C01002005490B68F0229343603A13430B60034B1A88034B1A607047000302407C01002095
:401A8000880F254010B500F0BBFE002802D000F0B1FE01E0064B1868064A1368D821890011601B02D82292021340184310BDC04640032540C00F254070B5FFF787FEC5B294
:401AC0001C4B1B78002B02D100221B4B1A7000240CE0184A1678F6B2731CDBB21370FFF7FFFEC0B2154B98550134E4B2AC42F0D3FF22134B1A600F4B1B78032B19D107E082
:401B00000E4AD25CD2B20F49CA540133DBB200E00023022BF4D9074A1378DBB20A490B70002313700422044B1A7002210220FEF7B5FC70BDF1010020350300209403002052
:401B4000C00F2440A80300201A030020014B18667047C0460000002010B5040000F039FE044A1368C0218B43A4011C43146000F034FE10BD08E400E080225200014B1A602E
:401B80007047C04600E100E080225200014B1A607047C04680E100E010B5FFF7F5FF0448FFF7D4FF0320FFF7D7FFFFF7E5FF10BDB91A000070B500F023FEC5B21C4B1B781B
:401BC000002B02D100221B4B1A7000240CE0184A1678F6B2731CDBB21370FFF753FFC0B2154B98550134E4B2AC42F0D3FF22134B1A600F4B1B78092B19D107E00E4AD25C9A
:401C0000D2B20F49CA540133DBB200E00023082BF4D9074A1378DBB20A490B70002313700422044B1A7002210320FEF737FC70BDEA030020F001002004030020C00F2540F6
:401C4000E0010020EE030020014B58667047C0460000002010B5040000F0BBFD044A1168044B0B40A4031C43146000F0B6FD10BD08E400E0FF3FFFFF80229200014B1A60AD
:401C80007047C04600E100E080229200014B1A607047C04680E100E010B5FFF7F5FF0448FFF7D2FF0320FFF7D5FFFFF7E5FF10BDB51B000000230AE00D4A12683F210A4000
:401CC0000C49C95C8A4201D1033303E001332D2BF2D9032308490868084A02400A60084A944663441B78DBB2064A13607047C0462CFF0B40482C000000002240FFFFFFBFFC
:401D0000CDF1FF0F28FF0B40034B18688023DB05184000D001207047000022401F2318401E3B8340014A13607047C04600E100E01F2318401E3B8340014A13607047C0468F
:401D400080E100E001BE704770B504000D001F2802D90020FFF7F6FF1034A40080239B059C4664442068256070BDC04670B504000E00032902D90020FFF7E4FF1F2C02D9F7
:401D80000020FFF7DFFF03252540ED00063500F020FDA408A400074B9C46644421680323AB4099430B003100A9401943216000F014FD70BD00E400E010B5040006E0084BD5
:401DC000586800F0FDFC074B9C46644480231B029C42F4D8024B9868604300F0F1FC10BDC40000200080FFFF70B582B000F0CAF800285DD000F0EDFC050000230AE02D4A38
:401E000012683F210A402C49C95C8A4201D1033303E001332D2BF2D903230021274A1160274A1268D20606D1254802681F318A4313390A430260234C2168234A1140234A01
:401E40005A438023DB019C466244D20B013A5205520D0B001343A0225203134323601C4B1B680193302000F0DDFC1A4A13688021C9050B4313602668174B1E40002407E0A0
:401E80000120FFF799FF1034A30533430D4A1360EE2CF5D90120FFF78FFFFF239B051E43084B1E60019A0A4B1A60280000F095FC02B070BD2CFF0B40482C000028FF0B4078
:401EC00034FF0B400800224000F800C040420F003000104000002240FFFF3FC030B587B0040000F076FC0500FFF70EFF002803D0FFF7E0FE012100E00021104B1B680093E5
:401F00000F4B1B680193033C0E4B1B5D02930E4B1B68039304AA0D4B04936B4605930C4B1A600C480C4A10601B68012901D1FFF75BFF280000F051FC07B030BD08010B401C
:401F400000010B40482C000030001040B6EA000008001040170000800400104010B5034B1B7B584300F02CFC10BDC046C4000020034B1868C0231B02184000D0012070475D
:401F800000010B40034B1B68002B01DA012000E0002070470000224010B500F01AFC044A1368C02109020B43136000F016FC10BD00010B4010B500F00CFC08490A68084B95
:401FC0001A408024E40122430A600A6813408022120213430B6000F000FC10BD00010B40FF3FFFFF70B5050000F0F3FB0400FFF7BFFF002803D0FFF7DDFF012100E0002102
:4020000008482840084A1568084B2B40184310601368012901D1FFF7BFFF200000F0DDFB70BDC0460404040010020B40FBFBFBFF10B5244B1B685B0715D5234B5B685B075B
:402040000ED5224B596A042001401F4C62688A4362605A6A82435A629B69002B00D098470420FFF7BFFF174B1B685B0518D5164B5B685B0510D5154B596A8022D2001140A6
:40208000114842688A434260596A114A0A405A62DB69002B00D098478020C000FFF7A2FF084B1B685B030CD5074B5B685B0304D5064B1B6A002B00D098478020C002FFF70C
:4020C00091FF10BD10020B40D800002080010020FFFBFFFF10B503211020FFF747FE42491020FFF731FE0322404B1A60404B1B68002B01DA3F4900E03F49404A13680B43E0
:4021000013603F4A3F4B1A603F4A404B1A6000233F4A13603F4A40490A6040490A60404A116880204002014311603E490A6802430A603D4A13603D4A136001223C4B1A6029
:402140003C4A11683C4B0B40802189050B431360002445E03949A2005058DC239B0103400919097A0B4336498C4662441360C30707D52D490A680123A3401B041B0C13431D
:402180000B60A3002D4A9B589B0707D527490A680123A3401B041B0C13430B60A300274A9B589A0502D58020400001E080204001DB0504D463000021224A995203E0630041
:4021C0000021204A9952204B5843204B9C4660441F4900F051FB00B2A2001E4BD0500134012CB7D910BDC046BD22000020003A4080033A40702010137020001300003A40E6
:402200001C00008004003A400000FF0718003A401C003A400200020010003A4014003A4000033A4040033A4028023A4038023A4018023A4030003A40FEFFFFDF782C0000EB
:4022400080003A40FC03002010270000E40C0000C8190000F403002010B5094B1B68002B0CDB084B1B68002BFBDB054A1368802109060B4313600A20FFF770FE10BDC04605
:4022800000003A4008023A4010B5064B1B78002B04D1FFF71FFF0122024B1A70FFF7DCFF10BDC046A8010020034A1368802149020B4313607047C04604003A40014B1A687E
:4022C0001A60704710023A4004490A68D2B240239A4380011840104308607047000004400004000C014B18607047C046480120400004000C014B18607047C046540120408F
:402300000004000C014B18607047C0464C01204070B504000D0000F05CFAAC40024B1C6000F05BFA70BDC0460800204010B500F050FA064A116802230B43136000F04DFA69
:4023400018210220FFF7E4FF10BDC04600002040014B18607047C0467801204010B50D4C8023DB042360236823600020FFF7B8FF236823600C22084B1A600120FFF7E8FF97
:402380003122064B1A600648FFF7B2FF0020FFF7B7FF10BD400120406401204068012040FFFF000010B5064B1B78002B04D1FFF7D5FF0122024B1A70FFF7B8FF10BDC04657
:4023C000A90100200004000C014B18607047C046880120400004000C014B18607047C046940120400004000C014B18607047C0468C01204070B504000D0000F0EAF9AC40A0
:40240000024B1C6000F0E9F970BDC0460800204010B500F0DEF9064A116804230B43136000F0DBF918210420FFF7E4FF10BDC04600002040014B18607047C046B801204062
:4024400010B50D4C8023DB042360236823600020FFF7B8FF236823600C22084B1A600120FFF7E8FF3122064B1A600648FFF7B2FF0020FFF7B7FF10BD80012040A4012040C5
:40248000A8012040FFFF000010B5064B1B78002B04D1FFF7D5FF0122024B1A70FFF7B8FF10BDC046AA0100200004000C014B18607047C046480220400004000C014B18604E
:4024C0007047C046540220400004000C014B18607047C0464C02204070B504000D0000F078F9AC40024B1C6000F077F970BDC0460800204010B500F06CF9064A11682023BD
:402500000B43136000F069F918212020FFF7E4FF10BDC04600002040014B18607047C0467802204010B50D4C8023DB042360236823600020FFF7B8FF236823600C22084B1B
:402540001A600120FFF7E8FF3122064B1A600648FFF7B2FF0020FFF7B7FF10BD400220406402204068022040FFFF000010B5064B1B78002B04D1FFF7D5FF0122024B1A709A
:40258000FFF7B8FF10BDC046AB0100200004000C014B18607047C046C80120400004000C014B18607047C046D40120400004000C014B18607047C046CC01204070B5040068
:4025C0000D0000F006F9AC40024B1C6000F005F970BDC0460800204010B500F0FAF8064A116808230B43136000F0F7F818210820FFF7E4FF10BDC04600002040014B186035
:402600007047C046F801204010B50D4C8023DB042360236823600020FFF7B8FF236823600C22084B1A600120FFF7E8FF3122064B1A600648FFF7B2FF0020FFF7B7FF10BDD3
:40264000C0012040E4012040E8012040FFFF000010B5064B1B78002B04D1FFF7D5FF0122024B1A70FFF7B8FF10BDC046AC0100200004000C014B18607047C04608012040F9
:402680000004000C014B18607047C0461401204070B504000D0000F09CF8AC40024B1C6000F09BF870BDC0460800204010B500F090F8064A116801230B43136000F08DF827
:4026C00018210120FFF7E4FF10BDC04600002040014B18607047C0463801204010B580229204074B1A600C22064B1A600120FFF7EFFF0548FFF7C4FF0020FFF7B9FF10BDF2
:402700000001204024012040409C000010B5064B1B78002B04D1FFF7E1FF0122024B1A70FFF7C4FF10BDC046AD010020014B58647047C0460000002010B5040000F049F825
:40274000044A1168044B0B40A4031C43146000F044F810BD00E400E0FF3FFFFF0222014B1A60704700E100E00222014B1A60704780E100E010B5FFF7F7FF0448FFF7D6FF79
:402780000320FFF7D9FFFFF7E9FF10BD9D2700000222014B1A60704780E200E010B572B6064B1B78DBB2032B03D802210020FDF775FEFFF7EDFF62B610BDC0462A030020AB
:4027C0000230800803D00138FDD1C046C046C0467047EFF3108072B6704780F31088704710B5034B1B68002B00D0984710BDC0466C010020014B18687047C0464003254068
:40280000024B1B681F2018407047C0460803254010B5034B1B68002B00D0984710BDC0467801002070B50400FFF7D3FF0500102C05D8104A136803218B43136016E0202C9D
:4028400007D80C490B6803229343023A13430B600CE0302C07D807490B6803229343013A13430B6002E00020FFF76CFA2800FFF7B4FF70BD3000104003460B437FD40022F0
:4028800043088B4274D303098B425FD3030A8B4244D3030B8B4228D3030C8B420DD3FF22090212BA030C8B4202D31212090265D0030B8B4219D300E0090AC30B8B4201D3F5
:4028C000CB03C01A5241830B8B4201D38B03C01A5241430B8B4201D34B03C01A5241030B8B4201D30B03C01A5241C30A8B4201D3CB02C01A5241830A8B4201D38B02C01A62
:402900005241430A8B4201D34B02C01A5241030A8B4201D30B02C01A5241CDD2C3098B4201D3CB01C01A524183098B4201D38B01C01A524143098B4201D34B01C01A524123
:4029400003098B4201D30B01C01A5241C3088B4201D3CB00C01A524183088B4201D38B00C01A524143088B4201D34B00C01A5241411A00D201465241104670475DE0CA0F9B
:4029800000D04942031000D34042534000229C4603098B422DD3030A8B4212D3FC22890112BA030A8B420CD3890192118B4208D3890192118B4204D389013AD0921100E03B
:4029C0008909C3098B4201D3CB01C01A524183098B4201D38B01C01A524143098B4201D34B01C01A524103098B4201D30B01C01A5241C3088B4201D3CB00C01A524183087E
:402A00008B4201D38B00C01A5241D9D243088B4201D34B00C01A5241411A00D20146634652415B10104601D34042002B00D54942704763465B1000D3404201B5002000F076
:402A400005F802BD0029F8D016E770477047C046014B18687047C046400100200E4B70B500251E000D4CE41AA410A54204D0AB00F35898470135F8E700F004F9084B002578
:402A80001E00084CE41AA410A54204D0AB00F35898470135F8E770BD902C0000902C0000902C0000982C0000002310B59A4203D0CC5CC4540133F9E710BD030082189342FE
:402AC00002D019700133FAE77047000000000000EA0E0000EA0E0000CA0D0000000E0000220E0000440E00006A0E0000AE0E0000D40E000034120000401100006214000035
:402B0000661400008E140000121300004552523A2063616E2774206164642074696D657220455654200000005741524E3A20636F756C64206E6F742063616E63656C207457
:402B4000696D657220455654200000000A0D00004552523A2074736B20512066756C6C3A000000004552523A206E6F207461736B7320696E20717565756520746F206465C1
:402B800071756575650D00006970696300000000646D706900000000556E7265636F676E697A656420636F6D6D616E640D0A00004920616D20616C6976650D004552523AF9
:402BC00020756E6B6E6F776E2047502074696D6572206576656E740D0A0000004552523A20756E68616E646C65207461736B20696E207461736B20717565756520000000C0
:402C00000D00000000300F40000400400F400004E6806A806F08DAC00A8022205D808620870889809680A708C210C810D6201C208810C604E601000001330F4003400F402A
:402C40000B410F4004430F40030405060708090A0B0C0E0F101112131415161718191B1C1D1E1F2021222325262728292A2B2E2F303132333435000000040000000400002B
:402C800000014300F8B5C046F8BC08BC9E467047A1020000ED150000F8B5C046F8BC08BC9E46704779020000B82C0000C000002088000000B802000000000000010000001D
:402CC0000000803E007D0000200000000048E801F0000000040404000000000000000000000000000000000000000000000000000000000000000000822C0000000000009E
:402D00000000000000000000000000000000000000000000000000000000000000000000000000000000000000000000000000000000000000000000E00000200000000093
:402D40000000000000000000000000000000000000000000000000000000000000000000000000000000000000000000000000000000000000000000000000000000000053
:402D80000000000000000000000000000000000000000000000000000000000000000000000000000000000000000000000000000000000000000000000000000000000013
:402DC00000000000000000000000000000000000000000000000000000000000000000000000000000000000000000000000000000000000000000000000000000000000D3
:402E00000000000000000000000000000000000000000000000000000000000000000000000000000000000000000000000000000000000000000000000000000000000092
:0200000490303A
:020000008190ED
:0200000490402A
:4000000000000000000000000000000000000000000000000000000000000000000000000000000000000000000000000000000000000000000000000000000000000000C0
:0200000490501A
:0C0000000002112511A100011133933101
:0200000490600A
:0100000001FE
:00000001FF