:400000000040002011000000F11D0000F11D000010B501F0F5FEC04610B512222D4B1A6002F0E0FB2C4803F0BBF8202002F086FB2A4A8023DB05136080214900284B1960BF
:40004000284B2949196000202849086028491960F82040012749086027491960B02040012649086026491960B4208001254908602549196082210906244B19608021C9023D
:40008000234B19604121234B1960402322490B6022490B6022490B6022490B604321224B19600139214B19600231214B19605F31204B1960204B13600822204B1A601F4B09
:4000C0001B681B07FBD401221C4B1A601032014B1A6010BD30001040001BB7000C020B40040301400000014041FF00800003014040FF00800C03014043FF0080080301405E
:4001000042FF00801003014044FF008008010B4000010B404C010140400101403C010140340101402C010140280101400C0101400801014008020B400500004010020B40DC
:4001400010B572B60122464B1A7000240FE045486200131959000B00411889881A5AC31858880004104301F00BFE0134E4B2012CEDD93C490C313C486C3001F0E7FD8022C1
:4001800052003A4B1A800121394B19700823394A13603948394A10609920394A10603948394A1060394A136099231B04384A1360384A1360384A1360384A394B1A60802218
:4001C0001205384B1A600F22374B1A600E20374B1860374C23782D32934314221343DBB22370344A147816232343DBB21370324A324B1A60324B1960324A334B1A609B2244
:40020000324B1A60324A334B1A600322324B1A600223324A1360324C324A1460324A1360324A10603248334A1060334A13600522324B1A608232FF32314B1A60773AFF3AA0
:40024000304B1A60C022D2012F4B1A602F4B196036222F4B1A60FFF7DFFE01F0A7FD10BD1C700F40103700009037000000600F4002600F400001024099EE00000003024014
:400280000004024008080000000502400007024000500F4010500F4020500F400400990030500F4034500F402000104000800F4001700F4000700F40B60DD8000800044067
:4002C00000010440068600000801044000020440C06CC300080204401802044000030440B1BD0000080304401803044000040440B1050300080404401804044000050440A2
:40030000080504400006044008060440000704400807044010B5064C2378002B07D1054B002B02D0044800E000BF0123237010BD4001002000000000C0350000084B10B553
:40034000002B03D00749084800E000BF07480368002B00D110BD064B002BFBD09847F9E70000000044010020C0350000C000002000000000002206E008490B780133DBB2E0
:400380000B700132D2B2054B1978C9B25B78DBB2994201D0032AEFD97047C0465C01002010B509E0064A5378DBB2064CE15453780133DBB25370013001780029F2D110BDE5
:4003C0005C010020E4010020F0B587B001236A461380093353805A339380FA239B00D3801B4B13810426002727E035007300002103AA995206E003A96C00625A013262522A
:40040000C31A98B26A006B46D35A9842F3D203ABD35A002B03D1002F01D1002E0BD13033DBB20C4A5178C9B20B4C635453780133DBB253700127013E36B2002ED5DA054B66
:400440005B78DBB20021044AD15407B0F0BDC046102700005C010020E401002070B50400134B9D78042D0CD918E09A001148125CA24203D19B00C318598005230133DBB26A
:4004800000E00023AB42F0D311D10A4AAB009C54D31859800135064B9D7008E00648FFF77FFFA0B2FFF790FF0448FFF779FF70BD5C010020B003002024360000C436000054
:4004C000F8B50700002100251DE0AB00164A9B5CBB4216D1AB00D31800225A80013EF6B2124B9E70280009E0441C0F498000A3000818C918042203F051F8E0B2B042F3D3A2
:4005000001210135EDB2094B9E78B542DDD3002908D10748FFF744FFB8B2FFF755FF0548FFF73EFFF8BDC046B00300205C010020403600006436000070B504000C4B1B78C7
:40054000DBB2042B0DD80A4A10780A4D4000445513785B00EB18597013780133DBB2137005E00548FFF71CFFA0B2FFF72DFF70BD18030020280300206836000070B51F4BB6
:400580001B78002B35D01E4B1C78E4B25878C0B2002301220FE05100194D69184978C9B2884206D9510068184078C0B24C5DE4B213000132D2B211490978C9B28A42EAD36E
:4005C0000E490A78013AD2B20A700CE05D1C0C4A6900885CC0B25B00985451184978C9B2D3185970EBB2054A1278D2B29342EDD302E00448FFF7D4FE200070BD18030020C2
:40060000280300207C36000010B5040043B2002B03DA012002F0D0FA02E0002002F0CCFA630603D5012002F06FFA02E0002002F06BFAA30603D5012001F0A8FD02E0002010
:4006400001F0A4FDE30603D5012001F023FC02E0002001F01FFC230703D5012001F026FC02E0002001F022FC630703D5012001F029FC02E0002001F025FCA30703D5012071
:4006800001F02CFC02E0002001F028FCE30703D5012001F02FFC02E0002001F02BFC10BD10B501F09BFD01F027FF02F0F7F901F0A7FC01F0A1FE02F001FA01F053FC02206A
:4006C00001F032FC02F0C0FA0020FFF79DFF02F0A9FB02F019FC02F033FB02F087FC02F041FA02F001FD002002F0A6FC02F0D6F902F02CFD10BDC046F8B505000C000028E5
:4007000003D1002001F054FC08E0012803D1002001F030FD02E0002002F066FA00211FE10E00994B5B5C994A1268EF200240984802605AB2002A06DA964A1068202202435E
:400740009548026005E0934A1268DF200240924802608E4A1068102202438D4802608F4A1268920601D4002200E08022C04687480068EF273840864F3860580606D58548E1
:40078000076820203843844F386005E081480068DF273840804F38607C480768102038437B4F38607D480068800602D540200243D2B2C04675480068EF273840744F3860A2
:4007C000980606D57348076820203843724F386005E070480068DF2738406F4F38606B480768102038436A4F38606C480068800602D520200243D2B2C04664480068EF2799
:400800003840634F3860D80606D56248076820203843614F386005E05E480068DF2738405D4F38605948076810203843584F38605A480068800602D510200243D2B2C0460C
:4008400052480068EF273840514F3860180706D550480768202038434F4F386005E04D480068DF2738404C4F38604848076810203843474F386049480068800602D50820D5
:400880000243D2B2C04641480068EF273840404F3860580706D53F480768202038433E4F386005E03B480068DF2738403A4F38603648076810203843354F386037480068A9
:4008C000800602D504200243D2B2C0462F480068EF2738402E4F3860980706D52D480768202038432C4F386005E02A480068DF273840294F38602548076810203843244FB3
:40090000386026480068800602D502200243D2B2C0461E480068EF2738401D4F3860DB0706D51C4B1868202303431B48036005E0184B1B68DF20034017480360134B1868FB
:400940001023034312480360144B1B689B0602D501231A43D2B2C046114B9A550131C9B2A14200D2DCE6002D03D1012001F020FB08E0012D03D1012001F0FCFB02E0012049
:4009800002F032F9F8BDC0466003002004060440000604400402044000020440040104404003002070B5154C0D2323700B3B637002210020FFF7A0FE642002F0F1FB10233A
:4009C00023705233637002210020FFF795FE642002F0E6FB112323706025657002210020FFF78AFE642002F0DBFB14232370657002210020FFF780FE70BDC04660030020AF
:400A000010B51C4C1F2323701B3B637002210220FFF772FE642002F0C3FB1D2323701B3B637002210220FFF767FE642002F0B8FB1C232370193B637002210220FFF75CFE59
:400A4000642002F0ADFB192323702933637002210220FFF751FE642002F0A2FB1B2323701833637002210220FFF746FE322002F097FB10BD6003002070B572B62C4BA222A1
:400A80001A7000225A700B210020FFF735FE294B1A791202D9780A4327490A809A78120259780A4325490A809A79120259790A4323490A80997A09025A7A114309B2214AB4
:400AC00011801A7A1202DB791A4312B21E4B1A8062B61E4B1B78002B0ED01D4B1B785B001C48185E1C4C2568281A20601B481B5E1B480468E31A0360174803685B18036096
:400B0000174803689B180360114B1B785800114C01530133DBB211494252082B02D101210A4A117007221340094A137070BDC0466003002040030020E00100205C03002046
:400B40007C03002002040020FE0200207A030020E4020020C403002090010020E00300201003002070B50F4C212323700025657002210120FFF7C0FD322002F011FB202344
:400B800023705833637002210120FFF7B5FD322002F006FB22232370657002210120FFF7ABFD70BD6003002010B50C4BE8221A7000225A7005210120FFF79EFD084B9A78FB
:400BC000120259780A4307490A8019790902DA780B001343044A138010BDC04660030020400300206E0300203203002070B504AC2478002C08D0394C2080394801803949FB
:400C00000A80394A138047E0344C248825001435A84202DD3148058008E02500143DA84202DA2E48058001E02C4C20802C48008804001434A14202DD29490C8008E0040080
:400C4000143CA14202DA26490C8001E0244801802449098808001430824202DD214A108008E008001438824202DA1E4A108001E01C490A801C4A1288110014318B4202DD0E
:400C8000194B198008E0110014398B4202DA164B198001E0144A1380104B1888FA231B019C46604402F06CF80D4B1888FA231B019C46604402F0D6F80A4B1888FA231B01C7
:400CC0009C46604401F0EAFF074B1888FA231B019C46604402F038F970BDC046F8030020D6030020880300207803002000B583B00022054B1A700123009300230021002034
:400D0000FFF774FF03B000BD06030020F0B54F464646C0B483B0654A13780133DBB21370022B13D1624B00229A5E624B00215B5E9A4203DD01335F4A138004E09A4202DA9F
:400D4000013B5C4A13800022584B1A705A4B1D885A4B00229B5E5B10EB1A9BB2584A0026965F584A0021515E4910891989B2564A128850480088121A92B254480088092864
:400D80000FD8DC00E41A24B2CB005B1A1BB250490F883FB2B9118C464E49098809B2891114E0DB001CB2C9000BB249490F883FB2098809B2BF110912BC468C4445490888F1
:400DC00007B2088801B2B81109124118D20012B2E410DB10D21040488046008800B247463F883FB2801181463812484480B2384F3F883A4F3F88374F3F88394F3F8847466F
:400E00003F88384F3F886444A7B259188BB2821892B29446344A11784A1ED2B2012A03D8324A0024145F08E0032903D1304A0024145F02E02F4A0024145FA4B2E21B92B2A8
:400E4000D01A6146401A2C498846404480B22B4908803C19A4B219196746C91B414489B2274F39809F1867444744BAB2254F3A80E41A2300634443449BB2234C2380D235F9
:400E8000ADB2D2246400A54203D8D22E01DCD23602DAFFF72BFF03E000240094FFF7A6FE03B00CBC90469946F0BDC04672030020DA010020C4010020140300207E03002071
:400EC000500300200404002004030020540300208C010020DC010020080400208201002056030020000300207C0100209C030020800100208C030020A4060000DE0100204F
:400F000016030020080300200A0300200522014B1A7070470603002070B50400FFF7D0FA082C00D98DE0A400484B1B599F46FFF719FE89E07E2001F081F8454C607801F078
:400F40007DF8207801F07AF8424B00255D5F2900414B186802F00AFA00B2773884B23F4B1C8029003E4B186802F000FA00B2A13083B23C4A13806834FF34A4B23A4A94423D
:400F800004D96833FF339BB2934202D8FFF7AEFE5AE005210220FFF761FA55E07F2001F04DF8324C607801F049F8207801F046F805210320FFF752FA46E0802001F03EF845
:400FC0002B4C607801F03AF8207801F037F805210420FFF743FA37E0812001F02FF8254C607801F02BF8207801F028F864210720FFF734FA28E004221F4B1A7024E001225B
:401000001E4B1A7077321E4B1A801E4B1B880C2253431D4A138017E0FFF778FF14E01B4B0021595E1A4BCA181A4803881BB25343028812B252109B18174A1360174B1980E8
:4010400002E01748FFF7ACF970BDC046C4350000F003002080030020AC010020AA010020A403002070030020CE0200001C030020D80100208A010020060300207C01002047
:40108000340300208C030020A00300209C03002009070000FA020020F403002080010020C836000070B54F4B1A6893079B1A9B009B1A9B121BB24C4A126891008A18921285
:4010C00012B24A490020095E8B4201DDC02501E0C0256D42464B00215B5E9A4201DDC02401E0C0246442434B1B78002B0ED1424A128812B241490A80414A128812B24149FD
:401100000A80414A128812B240490A80404A128840490988521A12B237490A803E4A12883E480088121A12B2354802803C4A12883C480088121A12B2334802800A8812B223
:401140009E21C9018A421DDC2B4A128812B236498A4217DB2A4A128812B29E21C9018A4210DC274A128812B22F498A420ADB028812B29E21C9018A4204DC028812B22A49C2
:401180008A4208DA0133DBB21A4A1370012B05D9FFF7BCFE02E00022164B1A70164B1A8812B2224B19688C466244AA181A60144B1B881BB21E49086884466344E3180B604A
:4011C0001149098809B21B480468A446614401605213064802805B13054A13804913164B198070BD10030020900100201403002050030020A80100208C01002082010020DB
:40120000DC010020560300200804002000030020E00100208E0300205C0300205A0300207C0300207E01002000B1FFFF8403002074030020A401002004030020F0B55746E2
:401240004E464546E0B482B0524A0023D65E524B1E80524C0023E15E8A46514B19805148017849B28B00417889091943118043789B005BB29B00827812091A432280837879
:401280001B01DBB29C00C3789B082343464CA4462380C778BC00A04604790C2745462F40A409274389B292B28C181C193C193F25A8462C409D08A9469944DB084B446546EB
:4012C0002B808E19394B1E805244394B1A800379424613409C424DD10022364B1A70FBB2072B50D8BF00344BDB599F46334B9C46614489B2324B994245D9FFF7F7FC42E027
:401300000024304B1C60304B1C60304B1C60214B1C80224B1C802E4B1C802E480094030002000100FFF762FC02222B4B1A702B4B1C8028E0FFF7DAFC25E0254A1388F83BCE
:40134000138020E0224A1388F83313801BE00023104A1380114A13801D4A1380124A1380A52000F06BFEA52000F068FEA52000F065FE08E00F4A13780133DBB21370032BA4
:4013800001D1FFF7C3FD02B01CBC90469946A246F0BDC046F80200209A0300201A0300208A030020A80300208C0300207E03002004040020DC030020E83500000D0200009C
:4013C0001A0400008403002074030020A4010020DA01002046050000060300208601002070B55C4B1B88AC22920093420BD95A4B1B885A4A934202D80233574A1380022206
:40140000574B1A704CE08E229200934216D9524B1B88524A934203D801334F4A138009E0504B1B78022B05D103224E4B1A7005324D4B1A7002224A4B1A7031E07022FF3290
:4014400093420AD8444A1388023B13800122454B1A700022424B1A7022E0E822FF3293420AD83D4A1388013B138001223D4B1A7000223B4B1A7013E03A4B1B78012B0CD1E6
:40148000354B1A88AF239B009A4206D10222354B1A7032210820FEF7E1FF0122304B1A70324B00229D5E324A1580324900228C5E1C80294B1B88304A12889A1A12B20A8049
:4014C0001E2A02DD1E220A8005E0093203DA09225242284B1A80274B00229B5EE21C934203DD1300234A138005E003339C4202DDE31E204A13801F4B1A88510051188900BA
:40150000511809B248101D490B780133DBB20B70082B06D11A490B88D3180B800021174B1970174B0021595E0E11164B1E80A3B2D21A92B25B1B9BB211015218510089B2E0
:40154000142463439BB20A18991871180E4B198070BDC0468C03002034030020BB020000580300207C0100204E0300200C0300205E0300208801002054030020520300202E
:40158000A0030020D40300209C030020F0B5474680B482B062B6002306E09A00D8498A180021518001339BB2032BF6D90421D54B19700822D44B1A700023D44A1370D44AA9
:4015C0001370D44A1370D44A1360D44A1360D44A1360D44A13700022D3480380D3480270D34800240470D3480380D3480380D3480380D3480380D3480380D3480380D34CA0
:40160000D3480480D348D44D2880D44D2C80D44C2080D4480360D4480360D4480380D4480270D4480380D4480380D44803807824D3480480D3480270D3480270D3480270B0
:40164000D3480270D34A1360D34B197008E0013BDBB299000020D14A8850013BCE4A1370CD4B1B78002BF2D10021CD4A13700022CC480380CC480270CC480170CC480170D5
:40168000CC490B80CC4B1A70002001F0A1FACB4801F086FDFFF704F8FFF7B2F9012300930023002200210020FFF7A0FAFFF77AF914210020FEF7D2FE00240023984600F0BE
:4016C00025FC002815D0AA4A13780133DBB21370012B0ED9FFF7D0F900F052FC914B1B78042B03D1FFF7DEFCFFF710FB0022A04B1A70B34B1B78002B00D1C3E272B6FEF7C0
:401700003DFFB04AD07062B6062800D9B0E28000AD4B1B589F46FFF7AFF90022944B1A70804B1B78022B2CD17F4B1B88A74A934223D8A74A0021525E774908688446624471
:401740000A60A44A0021525E74490868844662440A60A14A0021525E71490868844662440A600133704A13809C4800230093030002000100FFF73AFA84E20322694B1A7065
:4017800080E2684B1B78032B2DD1674B1B8880221201934227D1604E3268D21290490A805E480268D2128F490A805D490A68D2128D4F3A8001335C4A138000233360036081
:4017C0000B608A4A13808A4A1380A52000F036FCA52000F033FCA52000F030FC05210120FEF73CFE4EE24F4B1B78042B18D1FFF759FCFFF78BFA544B1A887E4B93429B4198
:401800005B42694A11784A424A411A4200D139E20122654B1A7096210520FEF71FFE31E2404B1B78052B00D02CE2FFF73BFC0023404A1380404A13808022434B1A805B4BEC
:4018400000221A70FFF762FA1CE20134E4B207232340072B07D101F0F5FB80B2514B1880002001F0E9FBC72C20D145460135ABB29846062B19D10023274A1360274A1360E8
:40188000274A13602B4A13802B4A13802D4A1380FA204000C63C0094030002000100FFF7A5F9204B1C70002400E00024164A13780133DBB2137013490B780133DBB20B7037
:4018C0001378182B02D105220F4B1A700E4B1B78042B02D100220E4B1A700A4B1B78182B02D10522074B1A70064B1B78042B02D10022064B1A70334B9E78002595E0C04631
:40190000B003002024030020C2010020C601002000040020840100208403002074030020A40100200603002086010020E40200207A030020F80200201A0300209A03002070
:401940008A030020DA0100208C0300200080FFFFF0030020FF7F0000D80100201C0300208A010020AC010020A4030020800300209E030020820100205603002000030020E7
:4019800034030020A8010020DC030020FC02002052030020FC03002023030020C8010020A0010020C0010020E20100207C0100204F030020C401002072030020404B4C0022
:4019C000180300205C01002008360000FF070000E00100205C0300207C030020460500008E0300205A0300207E0100200C0300205E03002001020000AB00AA4AD3185B8894
:401A0000002B10D0013B9BB2AA00A6498A185380002B08D1AA00505CFFF77EFA731E9D4201DA6B1E9DB26B1C9DB2B3B29D42E3D328E19D4B1B78042B0ED19C4B1B78002B12
:401A400003D00620FEF73CFD02E00122974B1A703E210620FEF702FDFFF7F0FB944AD3781B0294490B809078C3180B8053791B0291490B801279D3189BB20B80642B26D92E
:401A80008B4B9878C0B2FEF7BFFD8C4B1B78013BDBB2012B01D8FFF7A3FC864B1B88642B15D8864A1278032A11D10121834A1170834A0021525E83490A8083490B80002319
:401AC00082490B8082490B801201824B1A80FFF76BF8754B1B78022B37D17F4B1A887F4B9A4232D87E4B00229A5E7E4B00215B5E9A4202DD7B4B1A8006E07B4B00215B5E9C
:401B00009A4201DA784B1A80784B00215B5E78490020095E8B4202DD75490B8006E075490020095E8B4201DA72490B8072490868844662440A60714A11688C466344136079
:401B40006F4A1388013313809CE0574B1B78042B00D097E06B4B00229B5E002B00D091E0694B00229B5E4F2B00DD8BE04F3300DA88E0664B00229B5E4F2B00DD82E04F338A
:401B800000DA7FE0564A1388773B9BB2138057490A88A13212B20A805D4909885B1A1BB2002A06DD5B005B4A11688C466344136068E05B00574A1168CB1A136062E03F4B00
:401BC0001B78032B5ED1544A13780133DBB21370032B0FD10022504B1A70504B198809B24F4B186801F038FB80B24E4B9C466044334B18804C4B1B884C4A934213D94C4B6F
:401C00001B78012B0BD1454B1B881BB2444A11688C4663441360474A1378013313700222434B1A702EE0F6225200934216D8404B1B78012B0ED139490B881BB2384A1068C7
:401C4000C31A1360098809B25B1A1360394A1378013B13700022364B1A7013E0364A944663449BB21C2B0DD80122314B1A7009E03248FEF795FB324BD878FEF7A5FB31488D
:401C8000FEF78EFB2E4B1A78D2B25B78DBB29A4200D114E52C4B1B78002B00D00FE5FEF769FB0CE5B003002006030020FC020020B0010020540300200E0300207C0100209E
:401CC000800100209C030020340300200C0300205E030020A003002086010020FF0700006E030020F0030020D8010020320300201C0300208A010020AC010020A40300209D
:401D000080030020C40100201403002050030020AA010020A40100204F030020FA020020F4030020F7F8FFFF8C03002033020000580300204E030020FEFDFFFFE836000068
:401D40005C0100200C37000018030020F0B50025002711E0BB00C658F3B2FF22964308E06A008A181478A419527822700135013BDBB2002BF4D10137082FEBD9F0BDC046A0
:401D800010B50A00002101F012FC10BD064B1B68002803D080221206134301E05B005B08014A13607047C04680033A4010B50323094A1360094A136080210906084A116087
:401DC000084A1360084A13600022084B1A600120FFF7DCFF10BDC046300030403000314000003A4000033A4040033A40000E3F4010B501F0A7FB03680C2B00D1FEE7FEE78E
:401E000070B50F4E0F4D13E029686B68AC68002202E001C901C30432A242FAD1E868002202E0002102C304328242FAD11035013E002EE9D101F08CFBFFF7A8FBFEE7C0467B
:401E4000010000008038000010B50E4A136801218B43136000230AE0032B03D89A000A49505800E009489900094A885001332F2BF2D9FEF765F9034A116801230B431360B7
:401E800010BDC0460000104000000000F11D00000000002004490A68D2B220239A43400118401043086070470004044004490A68D2B208239A43C000184010430860704746
:401EC0000000044004490A68D2B204239A43800018401043086070470000044004490A68D2B202239A434000184010430860704700000440044A1368DBB201218B430840A8
:401F0000184310607047C04600000440024B1868000901231840704704030440014B98647047C0460000002010B5040001F041F9044A1168044B0B40A4051C43146001F09A
:401F40003CF910BD00E400E0FFFF3FFF0422014B1A60704700E100E00422014B1A60704780E100E010B5FFF7F7FF0448FFF7D6FF0320FFF7D9FFFFF7E9FF10BD8D1F000007
:401F80000422014B1A60704780E200E010B572B6064B1B78DBB2042B03D801210120FEF7CBFAFFF7EDFF62B610BDC0461803002004490A68D2B208239A43C0001840104319
:401FC000086070470002044010B5082000F0D6FA10BDC04610B500F0A1F810BD10B500F03BF810BD10B5054A1368802109060B431360FFF7E9FFFFF7EDFF10BD000024403B
:4020000010B5064B1B78002B04D1FFF7E7FF0122024B1A70FFF7E6FF10BDC04660010020014B18687047C04640032440024B1B681F2018407047C04608032440044B1B685D
:402040001F221340082BF9D0024B18607047C046080224404002244070B51B4A1B4B1A6000241B4B1C601B4A1B4B1A601B4B1C4A136007211B4A11601B4A146006391B4ACB
:4020800011601B4A13601B4B1C6004251A4B1D60082000F07DFA0321082000F097FA1749082000F081FA164B1C60164B1C60164B1C60164B1C60164B1D60164B1C601A68EA
:4020C000154B1A8070BDC0460B000002000024404000244001000A00480024400700008000032440040324401003244044002440000224400402244050002440C1310000F9
:40210000880E2440C80E2440480F2440080F2440C80F2440880F24406801002005490B68F0229343603A13430B60034B1A88034B1A6070470004024068010020880F244039
:4021400010B5FFF773FF002802D0FFF769FF01E0064B1868064A1368D821890011601B02D82292021340184310BDC04640032440C00F244004490A68D2B210239A43000110
:4021800018401043086070470002044004490A68D2B202239A43400018401043086070470007044010B5092000F0E8F910BDC04610B500F085F810BD10B500F01FF810BD4B
:4021C00010B5054A1368802109060B431360FFF7E9FFFFF7EDFF10BD0000254010B5064B1B78002B04D1FFF7E7FF0122024B1A70FFF7E6FF10BDC0466C01002070B51B4AA9
:402200001B4B1A6000241B4B1C601B4A1B4B1A601B4B1C4A136007211B4A11601B4A146006391B4A11601B4A13601B4B1C6004251A4B1D60092000F0ABF90321092000F089
:40224000C5F91749092000F0AFF9164B1C60164B1C60164B1C60164B1C60164B1D60164B1C601A68154B1A8070BDC0460B000002000025404000254001000A0048002540D2
:402280000700008000032540040325401003254044002540000225400402254050002540F1310000880E2540C80E2540480F2540080F2540C80F2540880F254074010020BE
:4022C00005490B68F0229343603A13430B60034B1A88034B1A6070470003024074010020880F254010B500F07BFF002802D000F071FF01E0064B1868064A1368D82189000D
:4023000011601B02D82292021340184310BDC04640032540C00F254070B5FFF787FEC5B21C4B1B78002B02D100221B4B1A7000240CE0184A1678F6B2731CDBB21370FFF7C6
:40234000FFFEC0B2154B98550134E4B2AC42F0D3FF22134B1A600F4B1B78052B19D107E00E4AD25CD2B20F49CA540133DBB200E00023042BF4D9074A1378DBB20A490B70C7
:40238000002313700422044B1A7002210220FEF7D3F870BDC60100202403002090030020C00F2440A803002002030020014B18667047C0460000002010B5040000F0F9FEEB
:4023C000044A1368C0218B43A4011C43146000F0F4FE10BD08E400E080225200014B1A607047C04600E100E080225200014B1A607047C04680E100E010B5FFF7F5FF044887
:40240000FFF7D4FF0320FFF7D7FFFFF7E5FF10BD1923000070B500F0E3FEC5B21C4B1B78002B02D100221B4B1A7000240CE0184A1678F6B2731CDBB21370FFF753FFC0B289
:40244000154B98550134E4B2AC42F0D3FF22134B1A600F4B1B78092B19D107E00E4AD25CD2B20F49CA540133DBB200E00023082BF4D9074A1378DBB20A490B700023137087
:402480000422044B1A7002210320FEF755F870BD00040020C2010020E8020020C00F2540B001002006040020014B58667047C0460000002010B5040000F07BFE044A116848
:4024C000044B0B40A4031C43146000F076FE10BD08E400E0FF3FFFFF80229200014B1A607047C04600E100E080229200014B1A607047C04680E100E010B5FFF7F5FF044824
:40250000FFF7D2FF0320FFF7D5FFFFF7E5FF10BD1524000000230AE00D4A12683F210A400C49C95C8A4201D1033303E001332D2BF2D9032308490868084A02400A60084AC0
:40254000944663441B78DBB2064A13607047C0462CFF0B402038000000002240FFFFFFBFCDF1FF0F28FF0B40034B18688023DB05184000D001207047000022401F231840C3
:402580001E3B8340014A13607047C04600E100E01F2318401E3B8340014A13607047C04680E100E001BE704770B504000D001F2802D90020FFF7F6FF1034A40080239B054D
:4025C0009C4664442068256070BDC04670B504000E00032902D90020FFF7E4FF1F2C02D90020FFF7DFFF03252540ED00063500F0E0FDA408A400074B9C4664442168032363
:40260000AB4099430B003100A9401943216000F0D4FD70BD00E400E010B5040006E0084B586800F0BDFD074B9C46644480231B029C42F4D8024B9868604300F0B1FD10BD12
:40264000C40000200080FFFF70B582B000F0EAF800285DD000F0ADFD050000230AE02D4A12683F210A402C49C95C8A4201D1033303E001332D2BF2D903230021274A116062
:40268000274A1268D20606D1254802681F318A4313390A430260234C2168234A1140234A5A438023DB019C466244D20B013A5205520D0B001343A0225203134323601C4B44
:4026C0001B680193302000F09DFD1A4A13688021C9050B4313602668174B1E40002407E00120FFF799FF1034A30533430D4A1360EE2CF5D90120FFF78FFFFF239B051E43F6
:40270000084B1E60019A0A4B1A60280000F055FD02B070BD2CFF0B402038000028FF0B4034FF0B400800224000F800C040420F003000104000002240FFFF3FC030B587B0A9
:40274000040000F036FD0500FFF70EFF002803D0FFF7E0FE012100E00021104B1B6800930F4B1B680193033C0E4B1B5D02930E4B1B68039304AA0D4B04936B4605930C4B02
:402780001A600C480C4A10601B68012901D1FFF75BFF280000F011FD07B030BD08010B4000010B402038000030001040B6EA000008001040170000800400104010B5034B7E
:4027C0001B7B584300F0ECFC10BDC046C4000020034B1868C0231B02184000D00120704700010B4010B50D4B1A6801218A431A601A68022082431A60094A10683024A04312
:40280000203C204310601068093CA043014311601A68802109060A431A6010BD00002240000F2240034B1B68002B01DA012000E0002070470000224010B500F0BAFC044AB1
:402840001368C02109020B43136000F0B6FC10BD00010B4010B500F0ACFC08490A68084B1A408024E40122430A600A6813408022120213430B6000F0A0FC10BD00010B406F
:40288000FF3FFFFF024B1868024B18407047C04610020B400404040070B5050000F089FC0400FFF795FF002803D0FFF7D3FF012100E0002108482840084A1568084B2B40EC
:4028C000184310601368012901D1FFF7B5FF200000F073FC70BDC0460404040010020B40FBFBFBFF10B503211020FFF76FFE42491020FFF759FE0322404B1A60404B1B6825
:40290000002B01DA3F4900E03F49404A13680B4313603F4A3F4B1A603F4A404B1A6000233F4A13603F49404A11604049404A1160404A116880204002014311603E490A6807
:4029400002430A603D4A13603D4A136001223D4B1A603D4A11683D4B0B40802189050B431360002445E03A49A2005058DC239B0103400919097A0B4336498C46624413607B
:40298000C30707D52D490A680123A3401B041B0C13430B60A3002E4A9B589B0707D528490A680123A3401B041B0C13430B60A300274A9B589A0502D58020400001E0802020
:4029C0004001DB0504D463000021234A995203E04208630020495A52204B5843204B9C466044204900F0C2FC00B2A2001E4BD0500134012CB7D910BDFD2A000020003A40F2
:402A000080033A40702010137020001300003A40F400008004003A400000FF0718003A401C003A400400040010003A400200020014003A4000033A4040033A4028023A40A7
:402A400038023A4018023A4030003A40FEFFFFDF5038000080003A401404002010270000E40C0000C81900000C04002010B5094B1B68002B0CDB084B1B68002BFBDB054AC3
:402A80001368802109060B4313600A20FFF796FE10BDC04600003A4008023A4010B5064B1B78002B04D1FFF71DFF0122024B1A70FFF7DCFF10BDC04676010020034A1368ED
:402AC000802149020B4313607047C04604003A4010B50400012802D90020FFF763FD012C07D8A400044B9C46644420680004000C00E0002000B210BD80013A40014B1A6842
:402B00001A60704710023A4004490A68D2B240239A438001184010430860704700000440014BD8657047C0460000002010B5040000F03FFB044A13689B009B08A4071C435C
:402B4000146000F03AFB10BD04E400E08022014B1A60704700E100E08022014B1A60704780E100E010B5FFF7F7FF0448FFF7D8FF0320FFF7DBFFFFF7E9FF10BD8D2B0000C7
:402B80008022014B1A60704780E200E010B5FFF779FE0400074B1B78DBB2032B03D802210020FDF7C9FCFFF7EBFF2000FFF774FE10BDC0461803002004490A687F231A40D6
:402BC000C301D8B2104308607047C0460000044004490A68D2B204239A43800018401043086070470004044004490A687F231A40C301D8B2104308607047C046000204402B
:402C0000014B58647047C0460000002010B5040000F0CFFA044A1168044B0B40A4031C43146000F0CAFA10BD00E400E0FF3FFFFF0222014B1A60704700E100E00222014BFF
:402C40001A60704780E100E010B5FFF7F7FF0448FFF7D6FF0320FFF7D9FFFFF7E9FF10BD712C00000222014B1A60704780E200E010B572B6FFF7F6FF62B610BD0004000C31
:402C8000014B18607047C046880120400004000C014B18607047C046940120400004000C014B18607047C0468C01204070B504000D0000F07EFAAC40024B1C6000F07DFAEC
:402CC00070BDC0460800204010B500F072FA064A116804230B43136000F06FFA18210420FFF7E4FF10BDC04600002040014B18607047C046B801204010B50D4C8023DB046B
:402D00002360236823600020FFF7B8FF236823600C22084B1A600120FFF7E8FF3122064B1A600648FFF7B2FF0020FFF7B7FF10BD80012040A4012040A8012040FFFF000095
:402D400010B5064B1B78002B04D1FFF7D5FF0122024B1A70FFF7B8FF10BDC046770100200004000C014B18607047C046080220400004000C014B18607047C04614022040CC
:402D80000004000C014B18607047C0460C02204070B504000D0000F00CFAAC40024B1C6000F00BFA70BDC0460800204010B500F000FA064A116810230B43136000F0FDF951
:402DC00018211020FFF7E4FF10BDC04600002040014B18607047C0463802204010B50D4C8023DB042360236823600020FFF7B8FF236823600C22084B1A600120FFF7E8FF3E
:402E00003122064B1A600648FFF7B2FF0020FFF7B7FF10BD000220402402204028022040FFFF000010B5064B1B78002B04D1FFF7D5FF0122024B1A70FFF7B8FF10BDC04689
:402E4000780100200004000C014B18607047C046480220400004000C014B18607047C046540220400004000C014B18607047C0464C02204070B504000D0000F09AF9AC4053
:402E8000024B1C6000F099F970BDC0460800204010B500F08EF9064A116820230B43136000F08BF918212020FFF7E4FF10BDC04600002040014B18607047C04678022040CF
:402EC00010B50D4C8023DB042360236823600020FFF7B8FF236823600C22084B1A600120FFF7E8FF3122064B1A600648FFF7B2FF0020FFF7B7FF10BD4002204064022040B9
:402F000068022040FFFF000010B5064B1B78002B04D1FFF7D5FF0122024B1A70FFF7B8FF10BDC046790100200004000C014B18607047C046080120400004000C014B186074
:402F40007047C046140120400004000C014B18607047C0460C01204070B504000D0000F028F9AC40024B1C6000F027F970BDC0460800204010B500F01CF9064A11680123C3
:402F80000B43136000F019F918210120FFF7E4FF10BDC04600002040014B18607047C0463801204010B50D4C8023DB042360236823600020FFF7B8FF236823600C22084B41
:402FC0001A600120FFF7E8FF3122064B1A600648FFF7B2FF0020FFF7B7FF10BD000120402401204028012040FFFF000010B5064B1B78002B04D1FFF7D5FF0122024B1A70D3
:40300000FFF7B8FF10BDC0467A010020034A117880235B420B43DBB21370704772000F40014B18707047C04682000F40014B1878C0B2704762000F40014B18707047C046E0
:4030400002000F40024B1B78024B1878C0B2704702000F4042000F40014B1878C0B2704742000F40014B18707047C04622000F40014B18707047C04632000F4010B501E0E7
:40308000FFF7EAFFFFF7D2FF4306F9D410BDC04610B513490B780722934301221343DBB20B700B78032293430B70FFF7E7FFFE20FFF7D8FF0020FFF7BFFF0020FFF7B0FF04
:4030C000FFF7B4FF8020FFF7D3FF00F072F8054A117810230B43DBB2137000F06EF810BD72000F4092000F4010B5064B1B78002B04D1FFF7CDFF0122024B1A70FFF786FF57
:4031000010BDC0467B010020014B18647047C0460000002010B5040000F04BF8044A1368C0218B43A4011C43146000F046F810BD00E400E00122014B1A60704700E100E06F
:403140000122014B1A60704780E100E010B5FFF7F7FF0448FFF7D8FF0320FFF7DBFFFFF7E9FF10BD753100000122014B1A60704780E200E010B50020FFF7AAFC064B188014
:403180000120FFF7A5FC054B1880FFF7EDFF02210620FDF7D1F910BD1E030020FA0200200230800803D00138FDD1C046C046C0467047EFF3108072B6704780F310887047EC
:4031C00010B5034B1B68002B00D0984710BDC04664010020014B18687047C04640032540024B1B681F2018407047C0460803254010B5034B1B68002B00D0984710BDC046FF
:403200007001002070B50400FFF7D3FF0500102C05D8104A136803218B43136016E0202C07D80C490B6803229343023A13430B600CE0302C07D807490B6803229343013AB3
:4032400013430B6002E00020FFF7ACF92800FFF7B4FF70BD30001040002243088B4274D303098B425FD3030A8B4244D3030B8B4228D3030C8B420DD3FF22090212BA030C5C
:403280008B4202D31212090265D0030B8B4219D300E0090AC30B8B4201D3CB03C01A5241830B8B4201D38B03C01A5241430B8B4201D34B03C01A5241030B8B4201D30B0313
:4032C000C01A5241C30A8B4201D3CB02C01A5241830A8B4201D38B02C01A5241430A8B4201D34B02C01A5241030A8B4201D30B02C01A5241CDD2C3098B4201D3CB01C01A0F
:40330000524183098B4201D38B01C01A524143098B4201D34B01C01A524103098B4201D30B01C01A5241C3088B4201D3CB00C01A524183088B4201D38B00C01A52414308F5
:403340008B4201D34B00C01A5241411A00D20146524110467047FFE701B5002000F0F0F802BDC0460029F7D076E7704703460B437FD4002243088B4274D303098B425FD30D
:40338000030A8B4244D3030B8B4228D3030C8B420DD3FF22090212BA030C8B4202D31212090265D0030B8B4219D300E0090AC30B8B4201D3CB03C01A5241830B8B4201D3EA
:4033C0008B03C01A5241430B8B4201D34B03C01A5241030B8B4201D30B03C01A5241C30A8B4201D3CB02C01A5241830A8B4201D38B02C01A5241430A8B4201D34B02C01A19
:403400005241030A8B4201D30B02C01A5241CDD2C3098B4201D3CB01C01A524183098B4201D38B01C01A524143098B4201D34B01C01A524103098B4201D30B01C01A52419A
:40344000C3088B4201D3CB00C01A524183088B4201D38B00C01A524143088B4201D34B00C01A5241411A00D201465241104670475DE0CA0F00D04942031000D34042534060
:4034800000229C4603098B422DD3030A8B4212D3FC22890112BA030A8B420CD3890192118B4208D3890192118B4204D389013AD0921100E08909C3098B4201D3CB01C01AE1
:4034C000524183098B4201D38B01C01A524143098B4201D34B01C01A524103098B4201D30B01C01A5241C3088B4201D3CB00C01A524183088B4201D38B00C01A5241D9D2D4
:4035000043088B4201D34B00C01A5241411A00D20146634652415B10104601D34042002B00D54942704763465B1000D3404201B5002000F005F802BD0029F8D016E770474E
:403540007047C046014B18687047C046380100200E4B70B500251E000D4CE41AA410A54204D0AB00F35898470135F8E700F076F9084B00251E00084CE41AA410A54204D085
:40358000AB00F35898470135F8E770BD68380000683800006838000070380000002310B59A4203D0CC5CC4540133F9E710BD03008218934202D019700133FAE7704700001B
:4035C000000000002E0F0000340F00009C0F0000BA0F0000D80F0000FE0F000018100000F60F00001E100000EC12000000130000341300003A1300004413000086130000F3
:40360000861300004E1300004A18000016170000321A00005C1A0000701C0000CE1A0000BE1B00004552523A2063616E2774206164642074696D6572204556542000000029
:403640005741524E3A20636F756C64206E6F742063616E63656C2074696D657220455654200000000A0D00004552523A2074736B20512066756C6C3A000000004552523AED
:40368000206E6F207461736B7320696E20717565756520746F20646571756575650D00006970696300000000646D706900000000556E7265636F676E697A656420636F6DD2
:4036C0006D616E640D0A00004552523A20756E6B6E6F776E2047502074696D6572206576656E740D0A0000004552523A20756E68616E646C65207461736B20696E2074611E
:40370000736B207175657565200000000D00000000300F40000400400F4000048267E201000403030E0C1401190122032E013008320233023404360137013E503F40401407
:403740004106455C4620470E483B49FF4AFF4BFF4DA04F01501852805407580459045A045B045F016040628064406540668068406A506BA86C406D206E506FA8B820BE10C6
:40378000D804DF01050106020E201640174018081D811E282640272037203D01423045824C044D014F045502562A5E986608670477408A40C090C220C490CC20CE80D090AD
:4037C000D220D670D860EE012C2068206F4470408040CA80DAC0DC60E28007049F04AB40C080EE8003088102C00209020C028802A502AB08C20CE6011001110101000F4035
:4038000001310F4032320F4022330F4009400F4005410F4003420F4007430F4002600F40030405060708090A0B0C0E0F101112131415161718191B1C1D1E1F202122232534
:40384000262728292A2B2E2F3031323334350000000400000004000000014300F8B5C046F8BC08BC9E4670473D030000491E0000F8B5C046F8BC08BC9E4670471503000032
:4038800090380000C000002080000000D802000000000000010000000000803E007D0000200000000048E80100000000000000000000000000000000000000000000000079
:4038C00000000000000000005A3800000000000000000000000000000000000000000000000000000000000000000000000000000000000000000000000000000000000036
:403900000000000000000000D8000020000000000000000000000000000000000000000000000000000000000000000000000000000000000000000000000000000000008F
:403940000000000000000000000000000000000000000000000000000000000000000000000000000000000000000000000000000000000000000000000000000000000047
:403980000000000000000000000000000000000000000000000000000000000000000000000000000000000000000000000000000000000000000000000000000000000007
:4039C00000000000000000000000000000000000000000000000000000000000000000000000000000000000000000000000000000000000000000000000000000000000C7
:403A00000000000000000000000000000000000000000000000000000000000000000000000000000000000000000000000000000000000000000000000000000000000086
:020000040001F9
:0200000490303A
:020000001D647D
:0200000490402A
:4000000000000000000000000000000000000000000000000000000000000000000000000000000000000000000000000000000000000000000000000000000000000000C0
:400040000000000000000000000000000000000000000000000000000000000000000000000000000000000000000000000000000000000000000000000000000000000080
:0200000490501A
:0C0000000002112E11A1000111402F057B
:0200000490600A
:0100000001FE
:00000001FF